{
  "contractName": "BoNhaCai",
  "abi": [
    {
      "inputs": [
        {
          "internalType": "uint256",
          "name": "_price",
          "type": "uint256"
        }
      ],
      "stateMutability": "nonpayable",
      "type": "constructor"
    },
    {
      "anonymous": false,
      "inputs": [
        {
          "indexed": true,
          "internalType": "address",
          "name": "owner",
          "type": "address"
        },
        {
          "indexed": true,
          "internalType": "address",
          "name": "spender",
          "type": "address"
        },
        {
          "indexed": false,
          "internalType": "uint256",
          "name": "value",
          "type": "uint256"
        }
      ],
      "name": "Approval",
      "type": "event"
    },
    {
      "anonymous": false,
      "inputs": [
        {
          "indexed": false,
          "internalType": "address",
          "name": "owner",
          "type": "address"
        },
        {
          "indexed": false,
          "internalType": "uint256",
          "name": "roundId",
          "type": "uint256"
        },
        {
          "indexed": false,
          "internalType": "address",
          "name": "resultContract",
          "type": "address"
        },
        {
          "indexed": false,
          "internalType": "uint256",
          "name": "endTime",
          "type": "uint256"
        },
        {
          "indexed": false,
          "internalType": "uint256",
          "name": "balance",
          "type": "uint256"
        }
      ],
      "name": "NewRound",
      "type": "event"
    },
    {
      "anonymous": false,
      "inputs": [
        {
          "indexed": false,
          "internalType": "address",
          "name": "owner",
          "type": "address"
        },
        {
          "indexed": false,
          "internalType": "uint256",
          "name": "ticketId",
          "type": "uint256"
        },
        {
          "indexed": false,
          "internalType": "uint256",
          "name": "data",
          "type": "uint256"
        },
        {
          "indexed": false,
          "internalType": "uint256",
          "name": "ticketPrice",
          "type": "uint256"
        },
        {
          "indexed": false,
          "internalType": "uint256",
          "name": "roundId",
          "type": "uint256"
        },
        {
          "indexed": false,
          "internalType": "bool",
          "name": "used",
          "type": "bool"
        }
      ],
      "name": "TicketBuy",
      "type": "event"
    },
    {
      "anonymous": false,
      "inputs": [
        {
          "indexed": true,
          "internalType": "address",
          "name": "from",
          "type": "address"
        },
        {
          "indexed": true,
          "internalType": "address",
          "name": "to",
          "type": "address"
        },
        {
          "indexed": false,
          "internalType": "uint256",
          "name": "value",
          "type": "uint256"
        }
      ],
      "name": "Transfer",
      "type": "event"
    },
    {
      "anonymous": false,
      "inputs": [
        {
          "indexed": false,
          "internalType": "address",
          "name": "owner",
          "type": "address"
        },
        {
          "indexed": false,
          "internalType": "uint256",
          "name": "ticketId",
          "type": "uint256"
        },
        {
          "indexed": false,
          "internalType": "uint256",
          "name": "amount",
          "type": "uint256"
        }
      ],
      "name": "WithDrawTicket",
      "type": "event"
    },
    {
      "stateMutability": "payable",
      "type": "fallback"
    },
    {
      "inputs": [
        {
          "internalType": "address",
          "name": "owner",
          "type": "address"
        },
        {
          "internalType": "address",
          "name": "spender",
          "type": "address"
        }
      ],
      "name": "allowance",
      "outputs": [
        {
          "internalType": "uint256",
          "name": "",
          "type": "uint256"
        }
      ],
      "stateMutability": "view",
      "type": "function"
    },
    {
      "inputs": [
        {
          "internalType": "address",
          "name": "spender",
          "type": "address"
        },
        {
          "internalType": "uint256",
          "name": "amount",
          "type": "uint256"
        }
      ],
      "name": "approve",
      "outputs": [
        {
          "internalType": "bool",
          "name": "",
          "type": "bool"
        }
      ],
      "stateMutability": "nonpayable",
      "type": "function"
    },
    {
      "inputs": [
        {
          "internalType": "address",
          "name": "account",
          "type": "address"
        }
      ],
      "name": "balanceOf",
      "outputs": [
        {
          "internalType": "uint256",
          "name": "",
          "type": "uint256"
        }
      ],
      "stateMutability": "view",
      "type": "function"
    },
    {
      "inputs": [],
      "name": "decimals",
      "outputs": [
        {
          "internalType": "uint8",
          "name": "",
          "type": "uint8"
        }
      ],
      "stateMutability": "view",
      "type": "function"
    },
    {
      "inputs": [
        {
          "internalType": "address",
          "name": "spender",
          "type": "address"
        },
        {
          "internalType": "uint256",
          "name": "subtractedValue",
          "type": "uint256"
        }
      ],
      "name": "decreaseAllowance",
      "outputs": [
        {
          "internalType": "bool",
          "name": "",
          "type": "bool"
        }
      ],
      "stateMutability": "nonpayable",
      "type": "function"
    },
    {
      "inputs": [
        {
          "internalType": "address",
          "name": "spender",
          "type": "address"
        },
        {
          "internalType": "uint256",
          "name": "addedValue",
          "type": "uint256"
        }
      ],
      "name": "increaseAllowance",
      "outputs": [
        {
          "internalType": "bool",
          "name": "",
          "type": "bool"
        }
      ],
      "stateMutability": "nonpayable",
      "type": "function"
    },
    {
      "inputs": [],
      "name": "name",
      "outputs": [
        {
          "internalType": "string",
          "name": "",
          "type": "string"
        }
      ],
      "stateMutability": "view",
      "type": "function"
    },
    {
      "inputs": [
        {
          "internalType": "uint256",
          "name": "",
          "type": "uint256"
        }
      ],
      "name": "rounds",
      "outputs": [
        {
          "internalType": "uint256",
          "name": "data",
          "type": "uint256"
        },
        {
          "internalType": "uint256",
          "name": "endTime",
          "type": "uint256"
        },
        {
          "internalType": "address",
          "name": "resultContract",
          "type": "address"
        }
      ],
      "stateMutability": "view",
      "type": "function"
    },
    {
      "inputs": [],
      "name": "symbol",
      "outputs": [
        {
          "internalType": "string",
          "name": "",
          "type": "string"
        }
      ],
      "stateMutability": "view",
      "type": "function"
    },
    {
      "inputs": [
        {
          "internalType": "uint256",
          "name": "",
          "type": "uint256"
        }
      ],
      "name": "tickets",
      "outputs": [
        {
          "internalType": "uint256",
          "name": "data",
          "type": "uint256"
        },
        {
          "internalType": "uint256",
          "name": "ticketPrice",
          "type": "uint256"
        },
        {
          "internalType": "uint256",
          "name": "roundId",
          "type": "uint256"
        },
        {
          "internalType": "bool",
          "name": "used",
          "type": "bool"
        }
      ],
      "stateMutability": "view",
      "type": "function"
    },
    {
      "inputs": [],
      "name": "token_price",
      "outputs": [
        {
          "internalType": "uint256",
          "name": "",
          "type": "uint256"
        }
      ],
      "stateMutability": "view",
      "type": "function"
    },
    {
      "inputs": [],
      "name": "totalSupply",
      "outputs": [
        {
          "internalType": "uint256",
          "name": "",
          "type": "uint256"
        }
      ],
      "stateMutability": "view",
      "type": "function"
    },
    {
      "inputs": [
        {
          "internalType": "address",
          "name": "recipient",
          "type": "address"
        },
        {
          "internalType": "uint256",
          "name": "amount",
          "type": "uint256"
        }
      ],
      "name": "transfer",
      "outputs": [
        {
          "internalType": "bool",
          "name": "",
          "type": "bool"
        }
      ],
      "stateMutability": "nonpayable",
      "type": "function"
    },
    {
      "inputs": [
        {
          "internalType": "address",
          "name": "sender",
          "type": "address"
        },
        {
          "internalType": "address",
          "name": "recipient",
          "type": "address"
        },
        {
          "internalType": "uint256",
          "name": "amount",
          "type": "uint256"
        }
      ],
      "name": "transferFrom",
      "outputs": [
        {
          "internalType": "bool",
          "name": "",
          "type": "bool"
        }
      ],
      "stateMutability": "nonpayable",
      "type": "function"
    },
    {
      "stateMutability": "payable",
      "type": "receive"
    },
    {
      "inputs": [],
      "name": "getAdmin",
      "outputs": [
        {
          "internalType": "address",
          "name": "",
          "type": "address"
        }
      ],
      "stateMutability": "view",
      "type": "function"
    },
    {
      "inputs": [
        {
          "internalType": "uint256",
          "name": "_newPrice",
          "type": "uint256"
        }
      ],
      "name": "setPriceToken",
      "outputs": [],
      "stateMutability": "nonpayable",
      "type": "function"
    },
    {
      "inputs": [
        {
          "internalType": "uint256",
          "name": "_roundId",
          "type": "uint256"
        }
      ],
      "name": "getRound",
      "outputs": [
        {
          "internalType": "uint256",
          "name": "",
          "type": "uint256"
        },
        {
          "internalType": "uint256",
          "name": "",
          "type": "uint256"
        },
        {
          "internalType": "address",
          "name": "",
          "type": "address"
        },
        {
          "internalType": "uint256[]",
          "name": "",
          "type": "uint256[]"
        }
      ],
      "stateMutability": "view",
      "type": "function"
    },
    {
      "inputs": [
        {
          "internalType": "uint256",
          "name": "_ticketId",
          "type": "uint256"
        }
      ],
      "name": "getTicket",
      "outputs": [
        {
          "internalType": "uint256",
          "name": "",
          "type": "uint256"
        },
        {
          "internalType": "uint256",
          "name": "",
          "type": "uint256"
        },
        {
          "internalType": "uint256",
          "name": "",
          "type": "uint256"
        },
        {
          "internalType": "bool",
          "name": "",
          "type": "bool"
        }
      ],
      "stateMutability": "view",
      "type": "function"
    },
    {
      "inputs": [
        {
          "internalType": "uint256",
          "name": "_data",
          "type": "uint256"
        },
        {
          "internalType": "address",
          "name": "_resultContract",
          "type": "address"
        },
        {
          "internalType": "uint256",
          "name": "_endTime",
          "type": "uint256"
        },
        {
          "internalType": "uint256",
          "name": "_balance",
          "type": "uint256"
        }
      ],
      "name": "createRound",
      "outputs": [
        {
          "internalType": "uint256",
          "name": "",
          "type": "uint256"
        }
      ],
      "stateMutability": "nonpayable",
      "type": "function"
    },
    {
      "inputs": [
        {
          "internalType": "uint256",
          "name": "_data",
          "type": "uint256"
        },
        {
          "internalType": "uint256",
          "name": "_price",
          "type": "uint256"
        },
        {
          "internalType": "uint256",
          "name": "_roundId",
          "type": "uint256"
        }
      ],
      "name": "buyTicket",
      "outputs": [
        {
          "internalType": "uint256",
          "name": "",
          "type": "uint256"
        }
      ],
      "stateMutability": "nonpayable",
      "type": "function"
    },
    {
      "inputs": [
        {
          "internalType": "uint256",
          "name": "ticketId",
          "type": "uint256"
        }
      ],
      "name": "withDrawTicket",
      "outputs": [],
      "stateMutability": "nonpayable",
      "type": "function"
    },
    {
      "inputs": [
        {
          "internalType": "uint256",
          "name": "roundId",
          "type": "uint256"
        }
      ],
      "name": "sumOfWinnerChipOfRound",
      "outputs": [
        {
          "internalType": "uint256",
          "name": "",
          "type": "uint256"
        }
      ],
      "stateMutability": "view",
      "type": "function"
    },
    {
      "inputs": [
        {
          "internalType": "uint256",
          "name": "roundId",
          "type": "uint256"
        }
      ],
      "name": "withDrawRound",
      "outputs": [],
      "stateMutability": "nonpayable",
      "type": "function"
    },
    {
      "inputs": [],
      "name": "buyToken",
      "outputs": [],
      "stateMutability": "payable",
      "type": "function"
    },
    {
      "inputs": [
        {
          "internalType": "uint256",
          "name": "roundId",
          "type": "uint256"
        }
      ],
      "name": "balanceOfRound",
      "outputs": [
        {
          "internalType": "uint256",
          "name": "",
          "type": "uint256"
        }
      ],
      "stateMutability": "view",
      "type": "function"
    },
    {
      "inputs": [
        {
          "internalType": "uint256",
          "name": "ticketId",
          "type": "uint256"
        }
      ],
      "name": "ticketToOwner",
      "outputs": [
        {
          "internalType": "address",
          "name": "",
          "type": "address"
        }
      ],
      "stateMutability": "view",
      "type": "function"
    },
    {
      "inputs": [],
      "name": "ownerToTickets",
      "outputs": [
        {
          "internalType": "uint256[]",
          "name": "",
          "type": "uint256[]"
        }
      ],
      "stateMutability": "view",
      "type": "function"
    },
    {
      "inputs": [],
      "name": "ownerToWinTickets",
      "outputs": [
        {
          "internalType": "uint256[]",
          "name": "",
          "type": "uint256[]"
        }
      ],
      "stateMutability": "view",
      "type": "function"
    },
    {
      "inputs": [
        {
          "internalType": "uint256",
          "name": "_roundId",
          "type": "uint256"
        }
      ],
      "name": "roundToWinTickets",
      "outputs": [
        {
          "internalType": "uint256[]",
          "name": "",
          "type": "uint256[]"
        }
      ],
      "stateMutability": "view",
      "type": "function"
    },
    {
      "inputs": [
        {
          "internalType": "uint256",
          "name": "ticketId",
          "type": "uint256"
        }
      ],
      "name": "ticketWinChip",
      "outputs": [
        {
          "internalType": "uint256",
          "name": "",
          "type": "uint256"
        }
      ],
      "stateMutability": "view",
      "type": "function"
    },
    {
      "inputs": [
        {
          "internalType": "uint256",
          "name": "roundId",
          "type": "uint256"
        }
      ],
      "name": "roundToOwner",
      "outputs": [
        {
          "internalType": "address",
          "name": "",
          "type": "address"
        }
      ],
      "stateMutability": "view",
      "type": "function"
    },
    {
      "inputs": [],
      "name": "ownerToRounds",
      "outputs": [
        {
          "internalType": "uint256[]",
          "name": "",
          "type": "uint256[]"
        }
      ],
      "stateMutability": "view",
      "type": "function"
    }
  ],
  "bytecode": "0x60806040523480156200001157600080fd5b5060405162004513380380620045138339818101604052810190620000379190620001f5565b6040518060400160405280600481526020017f43686970000000000000000000000000000000000000000000000000000000008152506040518060400160405280600381526020017f43484900000000000000000000000000000000000000000000000000000000008152508160039080519060200190620000bb9291906200012e565b508060049080519060200190620000d49291906200012e565b505050600160058190555033600760006101000a81548173ffffffffffffffffffffffffffffffffffffffff021916908373ffffffffffffffffffffffffffffffffffffffff1602179055508060068190555050620002aa565b8280546200013c906200022b565b90600052602060002090601f016020900481019282620001605760008555620001ac565b82601f106200017b57805160ff1916838001178555620001ac565b82800160010185558215620001ac579182015b82811115620001ab5782518255916020019190600101906200018e565b5b509050620001bb9190620001bf565b5090565b5b80821115620001da576000816000905550600101620001c0565b5090565b600081519050620001ef8162000290565b92915050565b6000602082840312156200020857600080fd5b60006200021884828501620001de565b91505092915050565b6000819050919050565b600060028204905060018216806200024457607f821691505b602082108114156200025b576200025a62000261565b5b50919050565b7f4e487b7100000000000000000000000000000000000000000000000000000000600052602260045260246000fd5b6200029b8162000221565b8114620002a757600080fd5b50565b61425980620002ba6000396000f3fe6080604052600436106101e75760003560e01c80637dc379fa11610102578063a482171911610095578063dd62ed3e11610064578063dd62ed3e146107b8578063e149fac2146107f5578063e2bae2f314610832578063e479ee7b1461085d576101f6565b8063a48217191461070b578063a9059cbb14610715578063aa9ef46a14610752578063c4c6710d1461077b576101f6565b80638c65c81f116100d15780638c65c81f146106245780638f1327c01461066357806395d89b41146106a3578063a457c2d7146106ce576101f6565b80637dc379fa1461056757806381d89b34146105a75780638270c41e146105d2578063852bfc03146105fb576101f6565b8063378f636e1161017a578063575986971161014957806357598697146104975780636e9960c3146104d457806370a08231146104ff5780637b4fd96e1461053c576101f6565b8063378f636e146103a057806339509351146103dd57806344db03fb1461041a57806350b4471214610457576101f6565b806323b872dd116101b657806323b872dd146102be57806327f64634146102fb5780632b08e82414610338578063313ce56714610375576101f6565b8063054e96711461020057806306fdde031461022b578063095ea7b31461025657806318160ddd14610293576101f6565b366101f6576101f461089a565b005b6101fe61089a565b005b34801561020c57600080fd5b5061021561090d565b6040516102229190613c87565b60405180910390f35b34801561023757600080fd5b50610240610bfa565b60405161024d9190613cc4565b60405180910390f35b34801561026257600080fd5b5061027d60048036038101906102789190613646565b610c8c565b60405161028a9190613ca9565b60405180910390f35b34801561029f57600080fd5b506102a8610caa565b6040516102b59190613e06565b60405180910390f35b3480156102ca57600080fd5b506102e560048036038101906102e091906135f7565b610cb4565b6040516102f29190613ca9565b60405180910390f35b34801561030757600080fd5b50610322600480360381019061031d91906136ab565b610db5565b60405161032f9190613e06565b60405180910390f35b34801561034457600080fd5b5061035f600480360381019061035a91906136ab565b610dd2565b60405161036c9190613c19565b60405180910390f35b34801561038157600080fd5b5061038a610e0f565b6040516103979190613f12565b60405180910390f35b3480156103ac57600080fd5b506103c760048036038101906103c291906136ab565b610e18565b6040516103d49190613e06565b60405180910390f35b3480156103e957600080fd5b5061040460048036038101906103ff9190613646565b611113565b6040516104119190613ca9565b60405180910390f35b34801561042657600080fd5b50610441600480360381019061043c91906136ab565b6111bf565b60405161044e9190613e06565b60405180910390f35b34801561046357600080fd5b5061047e600480360381019061047991906136ab565b611312565b60405161048e9493929190613ecd565b60405180910390f35b3480156104a357600080fd5b506104be60048036038101906104b991906136ab565b61135f565b6040516104cb9190613c87565b60405180910390f35b3480156104e057600080fd5b506104e9611792565b6040516104f69190613c19565b60405180910390f35b34801561050b57600080fd5b5061052660048036038101906105219190613592565b6117bc565b6040516105339190613e06565b60405180910390f35b34801561054857600080fd5b50610551611804565b60405161055e9190613e06565b60405180910390f35b34801561057357600080fd5b5061058e600480360381019061058991906136ab565b61180a565b60405161059e9493929190613ecd565b60405180910390f35b3480156105b357600080fd5b506105bc61196e565b6040516105c99190613c87565b60405180910390f35b3480156105de57600080fd5b506105f960048036038101906105f491906136ab565b611beb565b005b34801561060757600080fd5b50610622600480360381019061061d91906136ab565b611c4f565b005b34801561063057600080fd5b5061064b600480360381019061064691906136ab565b611d59565b60405161065a93929190613e4a565b60405180910390f35b34801561066f57600080fd5b5061068a600480360381019061068591906136ab565b611db3565b60405161069a9493929190613e81565b60405180910390f35b3480156106af57600080fd5b506106b8611f7c565b6040516106c59190613cc4565b60405180910390f35b3480156106da57600080fd5b506106f560048036038101906106f09190613646565b61200e565b6040516107029190613ca9565b60405180910390f35b61071361089a565b005b34801561072157600080fd5b5061073c60048036038101906107379190613646565b612102565b6040516107499190613ca9565b60405180910390f35b34801561075e57600080fd5b50610779600480360381019061077491906136ab565b612120565b005b34801561078757600080fd5b506107a2600480360381019061079d9190613760565b612355565b6040516107af9190613e06565b60405180910390f35b3480156107c457600080fd5b506107df60048036038101906107da91906135bb565b612623565b6040516107ec9190613e06565b60405180910390f35b34801561080157600080fd5b5061081c600480360381019061081791906136ab565b6126aa565b6040516108299190613c19565b60405180910390f35b34801561083e57600080fd5b506108476126e7565b6040516108549190613c87565b60405180910390f35b34801561086957600080fd5b50610884600480360381019061087f91906136fd565b612964565b6040516108919190613e06565b60405180910390f35b6006543410156108a957600080fd5b600654346108b79190613fd8565b6000803373ffffffffffffffffffffffffffffffffffffffff1673ffffffffffffffffffffffffffffffffffffffff16815260200190815260200160002060008282546109049190613f82565b92505081905550565b6060600080600060088054905067ffffffffffffffff811115610959577f4e487b7100000000000000000000000000000000000000000000000000000000600052604160045260246000fd5b6040519080825280602002602001820160405280156109875781602001602082028036833780820191505090505b5090505b600880549050831015610ad7573373ffffffffffffffffffffffffffffffffffffffff16600c600085815260200190815260200160002060009054906101000a900473ffffffffffffffffffffffffffffffffffffffff1673ffffffffffffffffffffffffffffffffffffffff161415610ac45760088381548110610a39577f4e487b7100000000000000000000000000000000000000000000000000000000600052603260045260246000fd5b906000526020600020906004020160030160009054906101000a900460ff16610ac3576000610a67846111bf565b1115610ac25782818381518110610aa7577f4e487b7100000000000000000000000000000000000000000000000000000000600052603260045260246000fd5b6020026020010181815250508180610abe906140f7565b9250505b5b5b8280610acf906140f7565b93505061098b565b60008267ffffffffffffffff811115610b19577f4e487b7100000000000000000000000000000000000000000000000000000000600052604160045260246000fd5b604051908082528060200260200182016040528015610b475781602001602082028036833780820191505090505b509050600093505b82841015610bf057818481518110610b90577f4e487b7100000000000000000000000000000000000000000000000000000000600052603260045260246000fd5b6020026020010151818581518110610bd1577f4e487b7100000000000000000000000000000000000000000000000000000000600052603260045260246000fd5b6020026020010181815250508380610be8906140f7565b945050610b4f565b8094505050505090565b606060038054610c09906140c5565b80601f0160208091040260200160405190810160405280929190818152602001828054610c35906140c5565b8015610c825780601f10610c5757610100808354040283529160200191610c82565b820191906000526020600020905b815481529060010190602001808311610c6557829003601f168201915b5050505050905090565b6000610ca0610c99612bb3565b8484612bbb565b6001905092915050565b6000600254905090565b6000610cc1848484612d86565b6000600160008673ffffffffffffffffffffffffffffffffffffffff1673ffffffffffffffffffffffffffffffffffffffff1681526020019081526020016000206000610d0c612bb3565b73ffffffffffffffffffffffffffffffffffffffff1673ffffffffffffffffffffffffffffffffffffffff16815260200190815260200160002054905082811015610d8c576040517f08c379a0000000000000000000000000000000000000000000000000000000008152600401610d8390613d66565b60405180910390fd5b610da985610d98612bb3565b8584610da49190614009565b612bbb565b60019150509392505050565b6000600a6000838152602001908152602001600020549050919050565b6000600c600083815260200190815260200160002060009054906101000a900473ffffffffffffffffffffffffffffffffffffffff169050919050565b60006012905090565b6000806000905060008060098581548110610e5c577f4e487b7100000000000000000000000000000000000000000000000000000000600052603260045260246000fd5b906000526020600020906004020160020160009054906101000a900473ffffffffffffffffffffffffffffffffffffffff1690505b60098581548110610ecb577f4e487b7100000000000000000000000000000000000000000000000000000000600052603260045260246000fd5b90600052602060002090600402016003018054905082101561110857600860098681548110610f23577f4e487b7100000000000000000000000000000000000000000000000000000000600052603260045260246000fd5b90600052602060002090600402016003018381548110610f6c577f4e487b7100000000000000000000000000000000000000000000000000000000600052603260045260246000fd5b906000526020600020015481548110610fae577f4e487b7100000000000000000000000000000000000000000000000000000000600052603260045260246000fd5b906000526020600020906004020160030160009054906101000a900460ff166110f5578073ffffffffffffffffffffffffffffffffffffffff1663e9f9d28b60098781548110611027577f4e487b7100000000000000000000000000000000000000000000000000000000600052603260045260246000fd5b90600052602060002090600402016003018481548110611070577f4e487b7100000000000000000000000000000000000000000000000000000000600052603260045260246000fd5b90600052602060002001546040518263ffffffff1660e01b81526004016110979190613e06565b60206040518083038186803b1580156110af57600080fd5b505afa1580156110c3573d6000803e3d6000fd5b505050506040513d601f19601f820116820180604052508101906110e791906136d4565b836110f29190613f82565b92505b8180611100906140f7565b925050610e91565b829350505050919050565b60006111b5611120612bb3565b84846001600061112e612bb3565b73ffffffffffffffffffffffffffffffffffffffff1673ffffffffffffffffffffffffffffffffffffffff16815260200190815260200160002060008873ffffffffffffffffffffffffffffffffffffffff1673ffffffffffffffffffffffffffffffffffffffff168152602001908152602001600020546111b09190613f82565b612bbb565b6001905092915050565b600080600883815481106111fc577f4e487b7100000000000000000000000000000000000000000000000000000000600052603260045260246000fd5b906000526020600020906004020160020154905060006009828154811061124c577f4e487b7100000000000000000000000000000000000000000000000000000000600052603260045260246000fd5b906000526020600020906004020160020160009054906101000a900473ffffffffffffffffffffffffffffffffffffffff1673ffffffffffffffffffffffffffffffffffffffff1663e9f9d28b856040518263ffffffff1660e01b81526004016112b69190613e06565b60206040518083038186803b1580156112ce57600080fd5b505afa1580156112e2573d6000803e3d6000fd5b505050506040513d601f19601f8201168201806040525081019061130691906136d4565b90508092505050919050565b6008818154811061132257600080fd5b90600052602060002090600402016000915090508060000154908060010154908060020154908060030160009054906101000a900460ff16905084565b60606000806000600985815481106113a0577f4e487b7100000000000000000000000000000000000000000000000000000000600052603260045260246000fd5b90600052602060002090600402016003018054905067ffffffffffffffff8111156113f4577f4e487b7100000000000000000000000000000000000000000000000000000000600052604160045260246000fd5b6040519080825280602002602001820160405280156114225781602001602082028036833780820191505090505b5090505b60098581548110611460577f4e487b7100000000000000000000000000000000000000000000000000000000600052603260045260246000fd5b90600052602060002090600402016003018054905083101561166d576008600986815481106114b8577f4e487b7100000000000000000000000000000000000000000000000000000000600052603260045260246000fd5b90600052602060002090600402016003018481548110611501577f4e487b7100000000000000000000000000000000000000000000000000000000600052603260045260246000fd5b906000526020600020015481548110611543577f4e487b7100000000000000000000000000000000000000000000000000000000600052603260045260246000fd5b906000526020600020906004020160030160009054906101000a900460ff1661165a5760006115fe600987815481106115a5577f4e487b7100000000000000000000000000000000000000000000000000000000600052603260045260246000fd5b906000526020600020906004020160030185815481106115ee577f4e487b7100000000000000000000000000000000000000000000000000000000600052603260045260246000fd5b90600052602060002001546111bf565b1115611659578281838151811061163e577f4e487b7100000000000000000000000000000000000000000000000000000000600052603260045260246000fd5b6020026020010181815250508180611655906140f7565b9250505b5b8280611665906140f7565b935050611426565b60008267ffffffffffffffff8111156116af577f4e487b7100000000000000000000000000000000000000000000000000000000600052604160045260246000fd5b6040519080825280602002602001820160405280156116dd5781602001602082028036833780820191505090505b509050600093505b8284101561178657818481518110611726577f4e487b7100000000000000000000000000000000000000000000000000000000600052603260045260246000fd5b6020026020010151818581518110611767577f4e487b7100000000000000000000000000000000000000000000000000000000600052603260045260246000fd5b602002602001018181525050838061177e906140f7565b9450506116e5565b80945050505050919050565b6000600760009054906101000a900473ffffffffffffffffffffffffffffffffffffffff16905090565b60008060008373ffffffffffffffffffffffffffffffffffffffff1673ffffffffffffffffffffffffffffffffffffffff168152602001908152602001600020549050919050565b60065481565b60008060008061181985613005565b61182257600080fd5b6008858154811061185c577f4e487b7100000000000000000000000000000000000000000000000000000000600052603260045260246000fd5b906000526020600020906004020160000154600886815481106118a8577f4e487b7100000000000000000000000000000000000000000000000000000000600052603260045260246000fd5b906000526020600020906004020160010154600887815481106118f4577f4e487b7100000000000000000000000000000000000000000000000000000000600052603260045260246000fd5b90600052602060002090600402016002015460088881548110611940577f4e487b7100000000000000000000000000000000000000000000000000000000600052603260045260246000fd5b906000526020600020906004020160030160009054906101000a900460ff1693509350935093509193509193565b6060600080600060088054905067ffffffffffffffff8111156119ba577f4e487b7100000000000000000000000000000000000000000000000000000000600052604160045260246000fd5b6040519080825280602002602001820160405280156119e85781602001602082028036833780820191505090505b5090505b600880549050831015611ac8573373ffffffffffffffffffffffffffffffffffffffff16600c600085815260200190815260200160002060009054906101000a900473ffffffffffffffffffffffffffffffffffffffff1673ffffffffffffffffffffffffffffffffffffffff161415611ab55782818381518110611a9a577f4e487b7100000000000000000000000000000000000000000000000000000000600052603260045260246000fd5b6020026020010181815250508180611ab1906140f7565b9250505b8280611ac0906140f7565b9350506119ec565b60008267ffffffffffffffff811115611b0a577f4e487b7100000000000000000000000000000000000000000000000000000000600052604160045260246000fd5b604051908082528060200260200182016040528015611b385781602001602082028036833780820191505090505b509050600093505b82841015611be157818481518110611b81577f4e487b7100000000000000000000000000000000000000000000000000000000600052603260045260246000fd5b6020026020010151818581518110611bc2577f4e487b7100000000000000000000000000000000000000000000000000000000600052603260045260246000fd5b6020026020010181815250508380611bd9906140f7565b945050611b40565b8094505050505090565b600760009054906101000a900473ffffffffffffffffffffffffffffffffffffffff1673ffffffffffffffffffffffffffffffffffffffff163373ffffffffffffffffffffffffffffffffffffffff1614611c4557600080fd5b8060068190555050565b60026005541415611c95576040517f08c379a0000000000000000000000000000000000000000000000000000000008152600401611c8c90613dc6565b60405180910390fd5b60026005819055503373ffffffffffffffffffffffffffffffffffffffff16600b600083815260200190815260200160002060009054906101000a900473ffffffffffffffffffffffffffffffffffffffff1673ffffffffffffffffffffffffffffffffffffffff1614611d0857600080fd5b6000600a60008381526020019081526020016000205490506000611d2b83610e18565b905080821115611d4c57611d4b33848385611d469190614009565b613071565b5b5050600160058190555050565b60098181548110611d6957600080fd5b90600052602060002090600402016000915090508060000154908060010154908060020160009054906101000a900473ffffffffffffffffffffffffffffffffffffffff16905083565b60008060006060611dc385613202565b611dcc57600080fd5b60098581548110611e06577f4e487b7100000000000000000000000000000000000000000000000000000000600052603260045260246000fd5b90600052602060002090600402016000015460098681548110611e52577f4e487b7100000000000000000000000000000000000000000000000000000000600052603260045260246000fd5b90600052602060002090600402016001015460098781548110611e9e577f4e487b7100000000000000000000000000000000000000000000000000000000600052603260045260246000fd5b906000526020600020906004020160020160009054906101000a900473ffffffffffffffffffffffffffffffffffffffff1660098881548110611f0a577f4e487b7100000000000000000000000000000000000000000000000000000000600052603260045260246000fd5b906000526020600020906004020160030180805480602002602001604051908101604052809291908181526020018280548015611f6657602002820191906000526020600020905b815481526020019060010190808311611f52575b5050505050905093509350935093509193509193565b606060048054611f8b906140c5565b80601f0160208091040260200160405190810160405280929190818152602001828054611fb7906140c5565b80156120045780601f10611fd957610100808354040283529160200191612004565b820191906000526020600020905b815481529060010190602001808311611fe757829003601f168201915b5050505050905090565b6000806001600061201d612bb3565b73ffffffffffffffffffffffffffffffffffffffff1673ffffffffffffffffffffffffffffffffffffffff16815260200190815260200160002060008573ffffffffffffffffffffffffffffffffffffffff1673ffffffffffffffffffffffffffffffffffffffff168152602001908152602001600020549050828110156120da576040517f08c379a00000000000000000000000000000000000000000000000000000000081526004016120d190613de6565b60405180910390fd5b6120f76120e5612bb3565b8585846120f29190614009565b612bbb565b600191505092915050565b600061211661210f612bb3565b8484612d86565b6001905092915050565b60026005541415612166576040517f08c379a000000000000000000000000000000000000000000000000000000000815260040161215d90613dc6565b60405180910390fd5b60026005819055503373ffffffffffffffffffffffffffffffffffffffff16600c600083815260200190815260200160002060009054906101000a900473ffffffffffffffffffffffffffffffffffffffff1673ffffffffffffffffffffffffffffffffffffffff16146121d957600080fd5b60088181548110612213577f4e487b7100000000000000000000000000000000000000000000000000000000600052603260045260246000fd5b906000526020600020906004020160030160009054906101000a900460ff161561223c57600080fd5b600060088281548110612278577f4e487b7100000000000000000000000000000000000000000000000000000000600052603260045260246000fd5b90600052602060002090600402016002015490506000612297836111bf565b905060008114156122b0576122ab8361326e565b612348565b6000600a60008481526020019081526020016000205490508082106122df576122da338484613071565b61233d565b600081146122f3576122f2338483613071565b5b61233c600b600085815260200190815260200160002060009054906101000a900473ffffffffffffffffffffffffffffffffffffffff163384846123379190614009565b612bbb565b5b6123468461326e565b505b5050600160058190555050565b600061236082613202565b61239f576040517f08c379a000000000000000000000000000000000000000000000000000000000815260040161239690613d26565b60405180910390fd5b600982815481106123d9577f4e487b7100000000000000000000000000000000000000000000000000000000600052603260045260246000fd5b906000526020600020906004020160020160009054906101000a900473ffffffffffffffffffffffffffffffffffffffff1673ffffffffffffffffffffffffffffffffffffffff1663d6b2bbf483866040518363ffffffff1660e01b8152600401612445929190613e21565b60206040518083038186803b15801561245d57600080fd5b505afa158015612471573d6000803e3d6000fd5b505050506040513d601f19601f820116820180604052508101906124959190613682565b61249e57600080fd5b6124a93383856132d5565b60006040518060800160405280868152602001858152602001848152602001600015158152509050600881908060018154018082558091505060019003906000526020600020906004020160009091909190915060008201518160000155602082015181600101556040820151816002015560608201518160030160006101000a81548160ff0219169083151502179055505050600060016008805490506125519190614009565b90506009848154811061258d577f4e487b7100000000000000000000000000000000000000000000000000000000600052603260045260246000fd5b906000526020600020906004020160030181908060018154018082558091505060019003906000526020600020016000909190919091505533600c600083815260200190815260200160002060006101000a81548173ffffffffffffffffffffffffffffffffffffffff021916908373ffffffffffffffffffffffffffffffffffffffff16021790555080925050509392505050565b6000600160008473ffffffffffffffffffffffffffffffffffffffff1673ffffffffffffffffffffffffffffffffffffffff16815260200190815260200160002060008373ffffffffffffffffffffffffffffffffffffffff1673ffffffffffffffffffffffffffffffffffffffff16815260200190815260200160002054905092915050565b6000600b600083815260200190815260200160002060009054906101000a900473ffffffffffffffffffffffffffffffffffffffff169050919050565b6060600080600060098054905067ffffffffffffffff811115612733577f4e487b7100000000000000000000000000000000000000000000000000000000600052604160045260246000fd5b6040519080825280602002602001820160405280156127615781602001602082028036833780820191505090505b5090505b600980549050831015612841573373ffffffffffffffffffffffffffffffffffffffff16600b600085815260200190815260200160002060009054906101000a900473ffffffffffffffffffffffffffffffffffffffff1673ffffffffffffffffffffffffffffffffffffffff16141561282e5782818381518110612813577f4e487b7100000000000000000000000000000000000000000000000000000000600052603260045260246000fd5b602002602001018181525050818061282a906140f7565b9250505b8280612839906140f7565b935050612765565b60008267ffffffffffffffff811115612883577f4e487b7100000000000000000000000000000000000000000000000000000000600052604160045260246000fd5b6040519080825280602002602001820160405280156128b15781602001602082028036833780820191505090505b509050600093505b8284101561295a578184815181106128fa577f4e487b7100000000000000000000000000000000000000000000000000000000600052603260045260246000fd5b602002602001015181858151811061293b577f4e487b7100000000000000000000000000000000000000000000000000000000600052603260045260246000fd5b6020026020010181815250508380612952906140f7565b9450506128b9565b8094505050505090565b60008373ffffffffffffffffffffffffffffffffffffffff1663a713100d86856040518363ffffffff1660e01b81526004016129a1929190613e21565b60206040518083038186803b1580156129b957600080fd5b505afa1580156129cd573d6000803e3d6000fd5b505050506040513d601f19601f820116820180604052508101906129f19190613682565b6129fa57600080fd5b612a02613496565b8381602001818152505084816040019073ffffffffffffffffffffffffffffffffffffffff16908173ffffffffffffffffffffffffffffffffffffffff1681525050858160000181815250506009819080600181540180825580915050600190039060005260206000209060040201600090919091909150600082015181600001556020820151816001015560408201518160020160006101000a81548173ffffffffffffffffffffffffffffffffffffffff021916908373ffffffffffffffffffffffffffffffffffffffff1602179055506060820151816003019080519060200190612af19291906134d4565b50505060006001600980549050612b089190614009565b905033600b600083815260200190815260200160002060006101000a81548173ffffffffffffffffffffffffffffffffffffffff021916908373ffffffffffffffffffffffffffffffffffffffff160217905550612b673382866132d5565b7f8140754f2b3078ad52935dad3f03c1438000126c965667241c27b3d1108013a83382888888604051612b9e959493929190613c34565b60405180910390a18092505050949350505050565b600033905090565b600073ffffffffffffffffffffffffffffffffffffffff168373ffffffffffffffffffffffffffffffffffffffff161415612c2b576040517f08c379a0000000000000000000000000000000000000000000000000000000008152600401612c2290613da6565b60405180910390fd5b600073ffffffffffffffffffffffffffffffffffffffff168273ffffffffffffffffffffffffffffffffffffffff161415612c9b576040517f08c379a0000000000000000000000000000000000000000000000000000000008152600401612c9290613d06565b60405180910390fd5b80600160008573ffffffffffffffffffffffffffffffffffffffff1673ffffffffffffffffffffffffffffffffffffffff16815260200190815260200160002060008473ffffffffffffffffffffffffffffffffffffffff1673ffffffffffffffffffffffffffffffffffffffff168152602001908152602001600020819055508173ffffffffffffffffffffffffffffffffffffffff168373ffffffffffffffffffffffffffffffffffffffff167f8c5be1e5ebec7d5bd14f71427d1e84f3dd0314c0f7b2291e5b200ac8c7c3b92583604051612d799190613e06565b60405180910390a3505050565b600073ffffffffffffffffffffffffffffffffffffffff168373ffffffffffffffffffffffffffffffffffffffff161415612df6576040517f08c379a0000000000000000000000000000000000000000000000000000000008152600401612ded90613d86565b60405180910390fd5b600073ffffffffffffffffffffffffffffffffffffffff168273ffffffffffffffffffffffffffffffffffffffff161415612e66576040517f08c379a0000000000000000000000000000000000000000000000000000000008152600401612e5d90613ce6565b60405180910390fd5b612e71838383613491565b60008060008573ffffffffffffffffffffffffffffffffffffffff1673ffffffffffffffffffffffffffffffffffffffff16815260200190815260200160002054905081811015612ef7576040517f08c379a0000000000000000000000000000000000000000000000000000000008152600401612eee90613d46565b60405180910390fd5b8181612f039190614009565b6000808673ffffffffffffffffffffffffffffffffffffffff1673ffffffffffffffffffffffffffffffffffffffff16815260200190815260200160002081905550816000808573ffffffffffffffffffffffffffffffffffffffff1673ffffffffffffffffffffffffffffffffffffffff1681526020019081526020016000206000828254612f939190613f82565b925050819055508273ffffffffffffffffffffffffffffffffffffffff168473ffffffffffffffffffffffffffffffffffffffff167fddf252ad1be2c89b69c2b068fc378daa952ba7f163c4a11628f55a4df523b3ef84604051612ff79190613e06565b60405180910390a350505050565b60008073ffffffffffffffffffffffffffffffffffffffff16600c600084815260200190815260200160002060009054906101000a900473ffffffffffffffffffffffffffffffffffffffff1673ffffffffffffffffffffffffffffffffffffffff1614159050919050565b600073ffffffffffffffffffffffffffffffffffffffff168373ffffffffffffffffffffffffffffffffffffffff1614156130e1576040517f08c379a00000000000000000000000000000000000000000000000000000000081526004016130d890613ce6565b60405180910390fd5b6130ea82613202565b613129576040517f08c379a000000000000000000000000000000000000000000000000000000000815260040161312090613d26565b60405180910390fd5b6000600a600084815260200190815260200160002054905081811015613184576040517f08c379a000000000000000000000000000000000000000000000000000000000815260040161317b90613d46565b60405180910390fd5b81816131909190614009565b600a600085815260200190815260200160002081905550816000808673ffffffffffffffffffffffffffffffffffffffff1673ffffffffffffffffffffffffffffffffffffffff16815260200190815260200160002060008282546131f59190613f82565b9250508190555050505050565b60008073ffffffffffffffffffffffffffffffffffffffff16600b600084815260200190815260200160002060009054906101000a900473ffffffffffffffffffffffffffffffffffffffff1673ffffffffffffffffffffffffffffffffffffffff1614159050919050565b6001600882815481106132aa577f4e487b7100000000000000000000000000000000000000000000000000000000600052603260045260246000fd5b906000526020600020906004020160030160006101000a81548160ff02191690831515021790555050565b600073ffffffffffffffffffffffffffffffffffffffff168373ffffffffffffffffffffffffffffffffffffffff161415613345576040517f08c379a000000000000000000000000000000000000000000000000000000000815260040161333c90613d86565b60405180910390fd5b61334e82613202565b61338d576040517f08c379a000000000000000000000000000000000000000000000000000000000815260040161338490613d26565b60405180910390fd5b60008060008573ffffffffffffffffffffffffffffffffffffffff1673ffffffffffffffffffffffffffffffffffffffff16815260200190815260200160002054905081811015613413576040517f08c379a000000000000000000000000000000000000000000000000000000000815260040161340a90613d46565b60405180910390fd5b818161341f9190614009565b6000808673ffffffffffffffffffffffffffffffffffffffff1673ffffffffffffffffffffffffffffffffffffffff1681526020019081526020016000208190555081600a600085815260200190815260200160002060008282546134849190613f82565b9250508190555050505050565b505050565b60405180608001604052806000815260200160008152602001600073ffffffffffffffffffffffffffffffffffffffff168152602001606081525090565b828054828255906000526020600020908101928215613510579160200282015b8281111561350f5782518255916020019190600101906134f4565b5b50905061351d9190613521565b5090565b5b8082111561353a576000816000905550600101613522565b5090565b60008135905061354d816141de565b92915050565b600081519050613562816141f5565b92915050565b6000813590506135778161420c565b92915050565b60008151905061358c8161420c565b92915050565b6000602082840312156135a457600080fd5b60006135b28482850161353e565b91505092915050565b600080604083850312156135ce57600080fd5b60006135dc8582860161353e565b92505060206135ed8582860161353e565b9150509250929050565b60008060006060848603121561360c57600080fd5b600061361a8682870161353e565b935050602061362b8682870161353e565b925050604061363c86828701613568565b9150509250925092565b6000806040838503121561365957600080fd5b60006136678582860161353e565b925050602061367885828601613568565b9150509250929050565b60006020828403121561369457600080fd5b60006136a284828501613553565b91505092915050565b6000602082840312156136bd57600080fd5b60006136cb84828501613568565b91505092915050565b6000602082840312156136e657600080fd5b60006136f48482850161357d565b91505092915050565b6000806000806080858703121561371357600080fd5b600061372187828801613568565b94505060206137328782880161353e565b935050604061374387828801613568565b925050606061375487828801613568565b91505092959194509250565b60008060006060848603121561377557600080fd5b600061378386828701613568565b935050602061379486828701613568565b92505060406137a586828701613568565b9150509250925092565b60006137bb8383613bec565b60208301905092915050565b6137d08161403d565b82525050565b60006137e182613f3d565b6137eb8185613f60565b93506137f683613f2d565b8060005b8381101561382757815161380e88826137af565b975061381983613f53565b9250506001810190506137fa565b5085935050505092915050565b61383d8161404f565b82525050565b600061384e82613f48565b6138588185613f71565b9350613868818560208601614092565b613871816141cd565b840191505092915050565b6000613889602383613f71565b91507f45524332303a207472616e7366657220746f20746865207a65726f206164647260008301527f65737300000000000000000000000000000000000000000000000000000000006020830152604082019050919050565b60006138ef602283613f71565b91507f45524332303a20617070726f766520746f20746865207a65726f20616464726560008301527f73730000000000000000000000000000000000000000000000000000000000006020830152604082019050919050565b6000613955602483613f71565b91507f4f70657261746f7220717565727920666f72206e6f6e6578697374656e74207260008301527f6f756e64000000000000000000000000000000000000000000000000000000006020830152604082019050919050565b60006139bb602683613f71565b91507f45524332303a207472616e7366657220616d6f756e742065786365656473206260008301527f616c616e636500000000000000000000000000000000000000000000000000006020830152604082019050919050565b6000613a21602883613f71565b91507f45524332303a207472616e7366657220616d6f756e742065786365656473206160008301527f6c6c6f77616e63650000000000000000000000000000000000000000000000006020830152604082019050919050565b6000613a87602583613f71565b91507f45524332303a207472616e736665722066726f6d20746865207a65726f20616460008301527f64726573730000000000000000000000000000000000000000000000000000006020830152604082019050919050565b6000613aed602483613f71565b91507f45524332303a20617070726f76652066726f6d20746865207a65726f2061646460008301527f72657373000000000000000000000000000000000000000000000000000000006020830152604082019050919050565b6000613b53601f83613f71565b91507f5265656e7472616e637947756172643a207265656e7472616e742063616c6c006000830152602082019050919050565b6000613b93602583613f71565b91507f45524332303a2064656372656173656420616c6c6f77616e63652062656c6f7760008301527f207a65726f0000000000000000000000000000000000000000000000000000006020830152604082019050919050565b613bf58161407b565b82525050565b613c048161407b565b82525050565b613c1381614085565b82525050565b6000602082019050613c2e60008301846137c7565b92915050565b600060a082019050613c4960008301886137c7565b613c566020830187613bfb565b613c6360408301866137c7565b613c706060830185613bfb565b613c7d6080830184613bfb565b9695505050505050565b60006020820190508181036000830152613ca181846137d6565b905092915050565b6000602082019050613cbe6000830184613834565b92915050565b60006020820190508181036000830152613cde8184613843565b905092915050565b60006020820190508181036000830152613cff8161387c565b9050919050565b60006020820190508181036000830152613d1f816138e2565b9050919050565b60006020820190508181036000830152613d3f81613948565b9050919050565b60006020820190508181036000830152613d5f816139ae565b9050919050565b60006020820190508181036000830152613d7f81613a14565b9050919050565b60006020820190508181036000830152613d9f81613a7a565b9050919050565b60006020820190508181036000830152613dbf81613ae0565b9050919050565b60006020820190508181036000830152613ddf81613b46565b9050919050565b60006020820190508181036000830152613dff81613b86565b9050919050565b6000602082019050613e1b6000830184613bfb565b92915050565b6000604082019050613e366000830185613bfb565b613e436020830184613bfb565b9392505050565b6000606082019050613e5f6000830186613bfb565b613e6c6020830185613bfb565b613e7960408301846137c7565b949350505050565b6000608082019050613e966000830187613bfb565b613ea36020830186613bfb565b613eb060408301856137c7565b8181036060830152613ec281846137d6565b905095945050505050565b6000608082019050613ee26000830187613bfb565b613eef6020830186613bfb565b613efc6040830185613bfb565b613f096060830184613834565b95945050505050565b6000602082019050613f276000830184613c0a565b92915050565b6000819050602082019050919050565b600081519050919050565b600081519050919050565b6000602082019050919050565b600082825260208201905092915050565b600082825260208201905092915050565b6000613f8d8261407b565b9150613f988361407b565b9250827fffffffffffffffffffffffffffffffffffffffffffffffffffffffffffffffff03821115613fcd57613fcc614140565b5b828201905092915050565b6000613fe38261407b565b9150613fee8361407b565b925082613ffe57613ffd61416f565b5b828204905092915050565b60006140148261407b565b915061401f8361407b565b92508282101561403257614031614140565b5b828203905092915050565b60006140488261405b565b9050919050565b60008115159050919050565b600073ffffffffffffffffffffffffffffffffffffffff82169050919050565b6000819050919050565b600060ff82169050919050565b60005b838110156140b0578082015181840152602081019050614095565b838111156140bf576000848401525b50505050565b600060028204905060018216806140dd57607f821691505b602082108114156140f1576140f061419e565b5b50919050565b60006141028261407b565b91507fffffffffffffffffffffffffffffffffffffffffffffffffffffffffffffffff82141561413557614134614140565b5b600182019050919050565b7f4e487b7100000000000000000000000000000000000000000000000000000000600052601160045260246000fd5b7f4e487b7100000000000000000000000000000000000000000000000000000000600052601260045260246000fd5b7f4e487b7100000000000000000000000000000000000000000000000000000000600052602260045260246000fd5b6000601f19601f8301169050919050565b6141e78161403d565b81146141f257600080fd5b50565b6141fe8161404f565b811461420957600080fd5b50565b6142158161407b565b811461422057600080fd5b5056fea26469706673582212207680cecad2e033e424a8e6ce787bb0e65da11e9d0cab39a0adccd7fad8878e8b64736f6c63430008000033",
  "immutableReferences": {},
  "source": "// SPDX-License-Identifier: MIT\n\npragma solidity ^0.8.0;\n\nimport \"./CustomERC20.sol\";\nimport \"@openzeppelin/contracts/security/ReentrancyGuard.sol\";\n\n\nabstract contract checkResultInterface {\n    function checkResult(uint ticketId) public view virtual returns (uint256);\n}\n\nabstract contract checkTicketBuyInterface {\n    function checkTicketBuy(uint roundId, uint256 _data) public view virtual returns (bool);\n}\n\nabstract contract checkRoundCreateInterface {\n    function checkRoundCreate(uint256 _data, uint _endtime) public view virtual returns (bool);\n}\n\ncontract BoNhaCai is CustomERC20, ReentrancyGuard{\n    uint256 public token_price;\n    address private admin;\n    \n    constructor(uint256 _price) CustomERC20(\"Chip\", \"CHI\") {\n        admin = msg.sender;\n        token_price = _price;\n    }\n\n    struct Ticket {\n        uint256 data;\n        uint256 ticketPrice;\n        uint256 roundId;\n        bool used;\n    }\n\n    struct Round {\n        uint256 data;\n        uint256 endTime;\n        address resultContract;\n        uint256[] ticketIds;\n    }\n\n    Ticket[] public tickets;\n    Round[] public rounds;\n\n    mapping(uint256 => uint256) private _balanceOfRounds;\n\n    mapping(uint256 => address) private _roundOwners;\n\n    mapping(uint256 => address) private _ticketOwners;\n\n    event NewRound(address owner, uint roundId, address resultContract, uint256 endTime, uint balance);\n    event TicketBuy(address owner, uint ticketId, uint data, uint ticketPrice, uint roundId, bool used);\n    event WithDrawTicket(address owner, uint ticketId, uint amount);\n\n    function getAdmin() view public returns(address){\n        return admin;\n    }\n\n    function setPriceToken(uint256 _newPrice) public {\n        require(msg.sender == admin);\n        token_price = _newPrice;\n    }\n\n    function getRound(uint256 _roundId) public view returns(uint256 , uint256 , address , uint256[] memory) {    \n        require(_roundExists(_roundId));    \n        return (rounds[_roundId].data, rounds[_roundId].endTime, rounds[_roundId].resultContract, rounds[_roundId].ticketIds);\n    } \n\n    function getTicket(uint256 _ticketId) public view returns(uint256 , uint256 , uint256 , bool){\n        require(_ticketExists(_ticketId));\n        return (tickets[_ticketId].data, tickets[_ticketId].ticketPrice, tickets[_ticketId].roundId, tickets[_ticketId].used);\n    }\n\n    function createRound(\n        uint256 _data,\n        address _resultContract,\n        uint256 _endTime,\n        uint256 _balance\n    ) external returns (uint256){\n        require(checkRoundCreateInterface(_resultContract).checkRoundCreate(_data, _endTime));\n        Round memory newRound;\n        newRound.endTime = _endTime;\n        newRound.resultContract = _resultContract;\n        newRound.data = _data;\n        rounds.push(newRound);\n        uint roundId = rounds.length-1;\n        _roundOwners[roundId] = msg.sender;\n        _transferToRound(msg.sender, roundId, _balance);\n        emit NewRound(msg.sender, roundId, _resultContract, _endTime, _balance);\n        return roundId;\n    }\n\n    function buyTicket(   \n        uint256 _data,\n        uint256 _price,\n        uint256 _roundId\n    ) external returns (uint256){\n        require(_roundExists(_roundId), \"Operator query for nonexistent round\");\n        require(checkTicketBuyInterface(rounds[_roundId].resultContract).checkTicketBuy(_roundId, _data));\n        _transferToRound(msg.sender, _roundId, _price);\n        Ticket memory newTicket = Ticket(_data, _price, _roundId, false);\n        tickets.push(newTicket);\n        uint ticketId = tickets.length - 1;\n        rounds[_roundId].ticketIds.push(ticketId);\n        _ticketOwners[ticketId] = msg.sender;\n        return ticketId;\n    }\n\n    function _transferToRound(\n        address _sender,\n        uint256 _roundId,\n        uint256 _amount\n    ) internal {\n        require(_sender != address(0), \"ERC20: transfer from the zero address\");\n        require(_roundExists(_roundId), \"Operator query for nonexistent round\");\n\n        uint256 senderBalance = _balances[_sender];\n        require(senderBalance >= _amount, \"ERC20: transfer amount exceeds balance\");\n        _balances[_sender] = senderBalance - _amount;\n        _balanceOfRounds[_roundId] += _amount;\n    }\n\n    function _transferFromRound(\n        address _recipient,\n        uint256 _roundId,\n        uint256 _amount\n    ) internal {\n        require(\n            _recipient != address(0),\n            \"ERC20: transfer to the zero address\"\n        );\n        require(_roundExists(_roundId), \"Operator query for nonexistent round\");\n\n        uint256 senderBalance = _balanceOfRounds[_roundId];\n        require(\n            senderBalance >= _amount,\n            \"ERC20: transfer amount exceeds balance\"\n        );\n        _balanceOfRounds[_roundId] = senderBalance - _amount;\n        _balances[_recipient] += _amount;\n    }\n\n    function withDrawTicket (uint ticketId) external nonReentrant{\n        require(_ticketOwners[ticketId]==msg.sender);\n        require(!tickets[ticketId].used);\n        uint256 roundId = tickets[ticketId].roundId;\n        uint256 winChip;\n        winChip = ticketWinChip(ticketId);\n        if(winChip == 0){\n            _disableTicket(ticketId);\n        }\n        else{\n            uint256 roundBalance = _balanceOfRounds[roundId];\n            if(winChip >= roundBalance){\n                _transferFromRound(msg.sender, roundId, winChip);\n            }\n            else{\n                if(roundBalance!=0){\n                    _transferFromRound(msg.sender, roundId, roundBalance);\n                }              \n                _approve(_roundOwners[roundId], msg.sender, roundBalance-winChip);\n            }\n            _disableTicket(ticketId);\n        }\n    }\n\n    function sumOfWinnerChipOfRound(uint roundId) view public returns (uint256){\n        uint sumOfWinChip = 0;\n        uint i = 0;\n        address resultContract = rounds[roundId].resultContract;\n        for(i;i<rounds[roundId].ticketIds.length;i++){\n            if(!tickets[rounds[roundId].ticketIds[i]].used)\n                sumOfWinChip += checkResultInterface(resultContract).checkResult(rounds[roundId].ticketIds[i]);\n        }\n        return sumOfWinChip;\n    }\n\n    function withDrawRound(uint256 roundId) external nonReentrant{\n        require(_roundOwners[roundId] == msg.sender);\n        uint256 balance = _balanceOfRounds[roundId];\n        uint256 sumOfWinChip = sumOfWinnerChipOfRound(roundId);\n        if(balance > sumOfWinChip){\n            _transferFromRound(msg.sender, roundId, balance - sumOfWinChip);\n        }\n    }\n\n    function _roundExists(uint256 _roundId) internal view returns (bool) {\n        return _roundOwners[_roundId] != address(0);\n    }\n\n    function _ticketExists(uint256 _ticketId) internal view returns (bool) {\n        return _ticketOwners[_ticketId] != address(0);\n    }\n\n    function buyToken() public payable{\n        require(msg.value >= token_price);\n        _balances[msg.sender] += (msg.value/token_price);\n    }\n\n    function balanceOfRound(uint roundId) public view returns(uint256){\n        return _balanceOfRounds[roundId];\n    }\n\n    function ticketToOwner(uint ticketId) public view returns(address) {\n        return _ticketOwners[ticketId];\n    }\n\n    function ownerToTickets() public view returns(uint256[] memory){\n        uint i = 0;\n        uint j = 0;\n        uint256[] memory tempTicketIds = new uint256[](tickets.length);\n        for(i;i<tickets.length;i++){\n            if(_ticketOwners[i]==msg.sender){\n                tempTicketIds[j] = i;\n                j++;\n            }\n        }\n        uint256[] memory ticketIds = new uint256[](j);\n        for(i=0;i<j;i++){\n            ticketIds[i] = tempTicketIds[i];\n        }\n        return ticketIds;\n    }\n\n    function ownerToWinTickets() public view returns (uint256[] memory){\n        uint i = 0;\n        uint j = 0;\n        uint256[] memory tempTicketIds = new uint256[](tickets.length);\n        for(i;i<tickets.length;i++){\n            if(_ticketOwners[i]==msg.sender){\n                if(!tickets[i].used){\n                    if(ticketWinChip(i)>0){\n                        tempTicketIds[j] = i;\n                        j++;\n                    }\n                }\n            }\n        }\n        uint256[] memory ticketIds = new uint256[](j);\n        for(i=0;i<j;i++){\n            ticketIds[i] = tempTicketIds[i];\n        }\n        return ticketIds;\n    }\n\n    function roundToWinTickets(uint _roundId) public view returns (uint256[] memory){\n        uint i = 0;\n        uint j = 0;\n        uint256[] memory tempTicketIds = new uint256[](rounds[_roundId].ticketIds.length);\n        for(i;i<rounds[_roundId].ticketIds.length;i++){\n            if(!tickets[rounds[_roundId].ticketIds[i]].used){\n                if(ticketWinChip(rounds[_roundId].ticketIds[i])>0){\n                    tempTicketIds[j] = i;\n                    j++;\n                }\n            }\n        }\n        uint256[] memory ticketIds = new uint256[](j);\n        for(i=0;i<j;i++){\n            ticketIds[i] = tempTicketIds[i];\n        }\n        return ticketIds;\n    }\n\n    function ticketWinChip(uint256 ticketId) public view returns (uint256){\n        uint256 roundId = tickets[ticketId].roundId;\n        uint256 winChip;\n        winChip = checkResultInterface(rounds[roundId].resultContract).checkResult(ticketId);\n        return winChip;    \n    }\n\n    function roundToOwner(uint roundId) public view returns(address){\n        return _roundOwners[roundId];\n    }\n\n    function ownerToRounds() public view returns(uint256[] memory){\n        uint i = 0;\n        uint j = 0;\n        uint256[] memory tempRoundIds = new uint256[](rounds.length);\n        for(i;i<rounds.length;i++){\n            if(_roundOwners[i]==msg.sender){\n                tempRoundIds[j] = i;\n                j++;\n            }\n        }\n        uint256[] memory roundIds = new uint256[](j);\n        for(i=0;i<j;i++){\n            roundIds[i] = tempRoundIds[i];\n        }\n        return roundIds;\n    }\n\n    function _disableTicket(uint256 ticketId) private {\n        tickets[ticketId].used = true;\n    }\n\n    fallback () external payable{\n        buyToken();\n    }\n\n    receive() external payable {\n        buyToken();\n    }\n}\n",
  "sourcePath": "/home/ubuntu/githubProject/dappReact/contracts/BoNhaCai.sol",
  "compiler": {
    "name": "solc",
    "version": "0.8.0+commit.c7dfd78e.Emscripten.clang"
  },
  "schemaVersion": "3.3.4",
  "updatedAt": "2021-04-17T04:26:03.891Z",
  "devdoc": {
    "kind": "dev",
    "methods": {
      "allowance(address,address)": {
        "details": "See {IERC20-allowance}."
      },
      "approve(address,uint256)": {
        "details": "See {IERC20-approve}. Requirements: - `spender` cannot be the zero address."
      },
      "balanceOf(address)": {
        "details": "See {IERC20-balanceOf}."
      },
      "decimals()": {
        "details": "Returns the number of decimals used to get its user representation. For example, if `decimals` equals `2`, a balance of `505` tokens should be displayed to a user as `5,05` (`505 / 10 ** 2`). Tokens usually opt for a value of 18, imitating the relationship between Ether and Wei. This is the value {ERC20} uses, unless this function is overloaded; NOTE: This information is only used for _display_ purposes: it in no way affects any of the arithmetic of the contract, including {IERC20-balanceOf} and {IERC20-transfer}."
      },
      "decreaseAllowance(address,uint256)": {
        "details": "Atomically decreases the allowance granted to `spender` by the caller. This is an alternative to {approve} that can be used as a mitigation for problems described in {IERC20-approve}. Emits an {Approval} event indicating the updated allowance. Requirements: - `spender` cannot be the zero address. - `spender` must have allowance for the caller of at least `subtractedValue`."
      },
      "increaseAllowance(address,uint256)": {
        "details": "Atomically increases the allowance granted to `spender` by the caller. This is an alternative to {approve} that can be used as a mitigation for problems described in {IERC20-approve}. Emits an {Approval} event indicating the updated allowance. Requirements: - `spender` cannot be the zero address."
      },
      "name()": {
        "details": "Returns the name of the token."
      },
      "symbol()": {
        "details": "Returns the symbol of the token, usually a shorter version of the name."
      },
      "totalSupply()": {
        "details": "See {IERC20-totalSupply}."
      },
      "transfer(address,uint256)": {
        "details": "See {IERC20-transfer}. Requirements: - `recipient` cannot be the zero address. - the caller must have a balance of at least `amount`."
      },
      "transferFrom(address,address,uint256)": {
        "details": "See {IERC20-transferFrom}. Emits an {Approval} event indicating the updated allowance. This is not required by the EIP. See the note at the beginning of {ERC20}. Requirements: - `sender` and `recipient` cannot be the zero address. - `sender` must have a balance of at least `amount`. - the caller must have allowance for ``sender``'s tokens of at least `amount`."
      }
    },
    "version": 1
  },
  "userdoc": {
    "kind": "user",
    "methods": {},
    "version": 1
  }
}