{
  "contractName": "BoNhaCai",
  "abi": [
    {
      "inputs": [
        {
          "internalType": "uint256",
          "name": "_price",
          "type": "uint256"
        }
      ],
      "stateMutability": "nonpayable",
      "type": "constructor"
    },
    {
      "anonymous": false,
      "inputs": [
        {
          "indexed": true,
          "internalType": "address",
          "name": "owner",
          "type": "address"
        },
        {
          "indexed": true,
          "internalType": "address",
          "name": "spender",
          "type": "address"
        },
        {
          "indexed": false,
          "internalType": "uint256",
          "name": "value",
          "type": "uint256"
        }
      ],
      "name": "Approval",
      "type": "event"
    },
    {
      "anonymous": false,
      "inputs": [
        {
          "indexed": false,
          "internalType": "address",
          "name": "owner",
          "type": "address"
        },
        {
          "indexed": false,
          "internalType": "uint256",
          "name": "roundId",
          "type": "uint256"
        },
        {
          "indexed": false,
          "internalType": "address",
          "name": "resultContract",
          "type": "address"
        },
        {
          "indexed": false,
          "internalType": "uint256",
          "name": "endTime",
          "type": "uint256"
        },
        {
          "indexed": false,
          "internalType": "uint256",
          "name": "balance",
          "type": "uint256"
        }
      ],
      "name": "NewRound",
      "type": "event"
    },
    {
      "anonymous": false,
      "inputs": [
        {
          "indexed": false,
          "internalType": "address",
          "name": "owner",
          "type": "address"
        },
        {
          "indexed": false,
          "internalType": "uint256",
          "name": "ticketId",
          "type": "uint256"
        },
        {
          "indexed": false,
          "internalType": "uint256",
          "name": "data",
          "type": "uint256"
        },
        {
          "indexed": false,
          "internalType": "uint256",
          "name": "ticketPrice",
          "type": "uint256"
        },
        {
          "indexed": false,
          "internalType": "uint256",
          "name": "roundId",
          "type": "uint256"
        },
        {
          "indexed": false,
          "internalType": "bool",
          "name": "used",
          "type": "bool"
        }
      ],
      "name": "NewTicket",
      "type": "event"
    },
    {
      "anonymous": false,
      "inputs": [
        {
          "indexed": true,
          "internalType": "address",
          "name": "from",
          "type": "address"
        },
        {
          "indexed": true,
          "internalType": "address",
          "name": "to",
          "type": "address"
        },
        {
          "indexed": false,
          "internalType": "uint256",
          "name": "value",
          "type": "uint256"
        }
      ],
      "name": "Transfer",
      "type": "event"
    },
    {
      "anonymous": false,
      "inputs": [
        {
          "indexed": false,
          "internalType": "address",
          "name": "owner",
          "type": "address"
        },
        {
          "indexed": false,
          "internalType": "uint256",
          "name": "roundId",
          "type": "uint256"
        },
        {
          "indexed": false,
          "internalType": "uint256",
          "name": "amount",
          "type": "uint256"
        }
      ],
      "name": "WithDrawRound",
      "type": "event"
    },
    {
      "anonymous": false,
      "inputs": [
        {
          "indexed": false,
          "internalType": "address",
          "name": "owner",
          "type": "address"
        },
        {
          "indexed": false,
          "internalType": "uint256",
          "name": "ticketId",
          "type": "uint256"
        },
        {
          "indexed": false,
          "internalType": "uint256",
          "name": "amount",
          "type": "uint256"
        }
      ],
      "name": "WithDrawTicket",
      "type": "event"
    },
    {
      "stateMutability": "payable",
      "type": "fallback",
      "payable": true
    },
    {
      "inputs": [
        {
          "internalType": "address",
          "name": "owner",
          "type": "address"
        },
        {
          "internalType": "address",
          "name": "spender",
          "type": "address"
        }
      ],
      "name": "allowance",
      "outputs": [
        {
          "internalType": "uint256",
          "name": "",
          "type": "uint256"
        }
      ],
      "stateMutability": "view",
      "type": "function",
      "constant": true
    },
    {
      "inputs": [
        {
          "internalType": "address",
          "name": "spender",
          "type": "address"
        },
        {
          "internalType": "uint256",
          "name": "amount",
          "type": "uint256"
        }
      ],
      "name": "approve",
      "outputs": [
        {
          "internalType": "bool",
          "name": "",
          "type": "bool"
        }
      ],
      "stateMutability": "nonpayable",
      "type": "function"
    },
    {
      "inputs": [
        {
          "internalType": "address",
          "name": "account",
          "type": "address"
        }
      ],
      "name": "balanceOf",
      "outputs": [
        {
          "internalType": "uint256",
          "name": "",
          "type": "uint256"
        }
      ],
      "stateMutability": "view",
      "type": "function",
      "constant": true
    },
    {
      "inputs": [],
      "name": "decimals",
      "outputs": [
        {
          "internalType": "uint8",
          "name": "",
          "type": "uint8"
        }
      ],
      "stateMutability": "view",
      "type": "function",
      "constant": true
    },
    {
      "inputs": [
        {
          "internalType": "address",
          "name": "spender",
          "type": "address"
        },
        {
          "internalType": "uint256",
          "name": "subtractedValue",
          "type": "uint256"
        }
      ],
      "name": "decreaseAllowance",
      "outputs": [
        {
          "internalType": "bool",
          "name": "",
          "type": "bool"
        }
      ],
      "stateMutability": "nonpayable",
      "type": "function"
    },
    {
      "inputs": [
        {
          "internalType": "address",
          "name": "spender",
          "type": "address"
        },
        {
          "internalType": "uint256",
          "name": "addedValue",
          "type": "uint256"
        }
      ],
      "name": "increaseAllowance",
      "outputs": [
        {
          "internalType": "bool",
          "name": "",
          "type": "bool"
        }
      ],
      "stateMutability": "nonpayable",
      "type": "function"
    },
    {
      "inputs": [],
      "name": "name",
      "outputs": [
        {
          "internalType": "string",
          "name": "",
          "type": "string"
        }
      ],
      "stateMutability": "view",
      "type": "function",
      "constant": true
    },
    {
      "inputs": [
        {
          "internalType": "uint256",
          "name": "",
          "type": "uint256"
        }
      ],
      "name": "rounds",
      "outputs": [
        {
          "internalType": "uint256",
          "name": "data",
          "type": "uint256"
        },
        {
          "internalType": "uint256",
          "name": "endTime",
          "type": "uint256"
        },
        {
          "internalType": "address",
          "name": "resultContract",
          "type": "address"
        }
      ],
      "stateMutability": "view",
      "type": "function",
      "constant": true
    },
    {
      "inputs": [],
      "name": "symbol",
      "outputs": [
        {
          "internalType": "string",
          "name": "",
          "type": "string"
        }
      ],
      "stateMutability": "view",
      "type": "function",
      "constant": true
    },
    {
      "inputs": [
        {
          "internalType": "uint256",
          "name": "",
          "type": "uint256"
        }
      ],
      "name": "tickets",
      "outputs": [
        {
          "internalType": "uint256",
          "name": "data",
          "type": "uint256"
        },
        {
          "internalType": "uint256",
          "name": "ticketPrice",
          "type": "uint256"
        },
        {
          "internalType": "uint256",
          "name": "roundId",
          "type": "uint256"
        },
        {
          "internalType": "bool",
          "name": "used",
          "type": "bool"
        }
      ],
      "stateMutability": "view",
      "type": "function",
      "constant": true
    },
    {
      "inputs": [],
      "name": "token_price",
      "outputs": [
        {
          "internalType": "uint256",
          "name": "",
          "type": "uint256"
        }
      ],
      "stateMutability": "view",
      "type": "function",
      "constant": true
    },
    {
      "inputs": [],
      "name": "totalSupply",
      "outputs": [
        {
          "internalType": "uint256",
          "name": "",
          "type": "uint256"
        }
      ],
      "stateMutability": "view",
      "type": "function",
      "constant": true
    },
    {
      "inputs": [
        {
          "internalType": "address",
          "name": "recipient",
          "type": "address"
        },
        {
          "internalType": "uint256",
          "name": "amount",
          "type": "uint256"
        }
      ],
      "name": "transfer",
      "outputs": [
        {
          "internalType": "bool",
          "name": "",
          "type": "bool"
        }
      ],
      "stateMutability": "nonpayable",
      "type": "function"
    },
    {
      "inputs": [
        {
          "internalType": "address",
          "name": "sender",
          "type": "address"
        },
        {
          "internalType": "address",
          "name": "recipient",
          "type": "address"
        },
        {
          "internalType": "uint256",
          "name": "amount",
          "type": "uint256"
        }
      ],
      "name": "transferFrom",
      "outputs": [
        {
          "internalType": "bool",
          "name": "",
          "type": "bool"
        }
      ],
      "stateMutability": "nonpayable",
      "type": "function"
    },
    {
      "stateMutability": "payable",
      "type": "receive",
      "payable": true
    },
    {
      "inputs": [],
      "name": "getAdmin",
      "outputs": [
        {
          "internalType": "address",
          "name": "",
          "type": "address"
        }
      ],
      "stateMutability": "view",
      "type": "function",
      "constant": true
    },
    {
      "inputs": [
        {
          "internalType": "uint256",
          "name": "_newPrice",
          "type": "uint256"
        }
      ],
      "name": "setPriceToken",
      "outputs": [],
      "stateMutability": "nonpayable",
      "type": "function"
    },
    {
      "inputs": [
        {
          "internalType": "uint256",
          "name": "_roundId",
          "type": "uint256"
        }
      ],
      "name": "getRound",
      "outputs": [
        {
          "internalType": "uint256",
          "name": "",
          "type": "uint256"
        },
        {
          "internalType": "uint256",
          "name": "",
          "type": "uint256"
        },
        {
          "internalType": "address",
          "name": "",
          "type": "address"
        },
        {
          "internalType": "uint256[]",
          "name": "",
          "type": "uint256[]"
        }
      ],
      "stateMutability": "view",
      "type": "function",
      "constant": true
    },
    {
      "inputs": [],
      "name": "getLengthRounds",
      "outputs": [
        {
          "internalType": "uint256",
          "name": "",
          "type": "uint256"
        }
      ],
      "stateMutability": "view",
      "type": "function",
      "constant": true
    },
    {
      "inputs": [
        {
          "internalType": "uint256",
          "name": "_ticketId",
          "type": "uint256"
        }
      ],
      "name": "getTicket",
      "outputs": [
        {
          "internalType": "uint256",
          "name": "",
          "type": "uint256"
        },
        {
          "internalType": "uint256",
          "name": "",
          "type": "uint256"
        },
        {
          "internalType": "uint256",
          "name": "",
          "type": "uint256"
        },
        {
          "internalType": "bool",
          "name": "",
          "type": "bool"
        }
      ],
      "stateMutability": "view",
      "type": "function",
      "constant": true
    },
    {
      "inputs": [
        {
          "internalType": "uint256",
          "name": "_data",
          "type": "uint256"
        },
        {
          "internalType": "address",
          "name": "_resultContract",
          "type": "address"
        },
        {
          "internalType": "uint256",
          "name": "_endTime",
          "type": "uint256"
        },
        {
          "internalType": "uint256",
          "name": "_balance",
          "type": "uint256"
        }
      ],
      "name": "createRound",
      "outputs": [],
      "stateMutability": "nonpayable",
      "type": "function"
    },
    {
      "inputs": [
        {
          "internalType": "uint256",
          "name": "_data",
          "type": "uint256"
        },
        {
          "internalType": "uint256",
          "name": "_price",
          "type": "uint256"
        },
        {
          "internalType": "uint256",
          "name": "_roundId",
          "type": "uint256"
        }
      ],
      "name": "buyTicket",
      "outputs": [],
      "stateMutability": "nonpayable",
      "type": "function"
    },
    {
      "inputs": [
        {
          "internalType": "uint256",
          "name": "ticketId",
          "type": "uint256"
        }
      ],
      "name": "withDrawTicket",
      "outputs": [],
      "stateMutability": "nonpayable",
      "type": "function"
    },
    {
      "inputs": [
        {
          "internalType": "uint256",
          "name": "roundId",
          "type": "uint256"
        }
      ],
      "name": "sumOfWinnerChipOfRound",
      "outputs": [
        {
          "internalType": "uint256",
          "name": "",
          "type": "uint256"
        }
      ],
      "stateMutability": "view",
      "type": "function",
      "constant": true
    },
    {
      "inputs": [
        {
          "internalType": "uint256",
          "name": "roundId",
          "type": "uint256"
        }
      ],
      "name": "checkRoundRemainingBalance",
      "outputs": [
        {
          "internalType": "uint256",
          "name": "",
          "type": "uint256"
        }
      ],
      "stateMutability": "view",
      "type": "function",
      "constant": true
    },
    {
      "inputs": [
        {
          "internalType": "uint256",
          "name": "roundId",
          "type": "uint256"
        }
      ],
      "name": "withDrawRound",
      "outputs": [],
      "stateMutability": "nonpayable",
      "type": "function"
    },
    {
      "inputs": [],
      "name": "buyToken",
      "outputs": [],
      "stateMutability": "payable",
      "type": "function",
      "payable": true
    },
    {
      "inputs": [
        {
          "internalType": "uint256",
          "name": "roundId",
          "type": "uint256"
        }
      ],
      "name": "balanceOfRound",
      "outputs": [
        {
          "internalType": "uint256",
          "name": "",
          "type": "uint256"
        }
      ],
      "stateMutability": "view",
      "type": "function",
      "constant": true
    },
    {
      "inputs": [
        {
          "internalType": "uint256",
          "name": "ticketId",
          "type": "uint256"
        }
      ],
      "name": "ticketToOwner",
      "outputs": [
        {
          "internalType": "address",
          "name": "",
          "type": "address"
        }
      ],
      "stateMutability": "view",
      "type": "function",
      "constant": true
    },
    {
      "inputs": [],
      "name": "ownerToTickets",
      "outputs": [
        {
          "internalType": "uint256[]",
          "name": "",
          "type": "uint256[]"
        }
      ],
      "stateMutability": "view",
      "type": "function",
      "constant": true
    },
    {
      "inputs": [],
      "name": "ownerToWinTickets",
      "outputs": [
        {
          "internalType": "uint256[]",
          "name": "",
          "type": "uint256[]"
        }
      ],
      "stateMutability": "view",
      "type": "function",
      "constant": true
    },
    {
      "inputs": [
        {
          "internalType": "uint256",
          "name": "_roundId",
          "type": "uint256"
        }
      ],
      "name": "roundToWinTickets",
      "outputs": [
        {
          "internalType": "uint256[]",
          "name": "",
          "type": "uint256[]"
        }
      ],
      "stateMutability": "view",
      "type": "function",
      "constant": true
    },
    {
      "inputs": [
        {
          "internalType": "uint256",
          "name": "ticketId",
          "type": "uint256"
        }
      ],
      "name": "ticketWinChip",
      "outputs": [
        {
          "internalType": "uint256",
          "name": "",
          "type": "uint256"
        }
      ],
      "stateMutability": "view",
      "type": "function",
      "constant": true
    },
    {
      "inputs": [
        {
          "internalType": "uint256",
          "name": "roundId",
          "type": "uint256"
        }
      ],
      "name": "roundToOwner",
      "outputs": [
        {
          "internalType": "address",
          "name": "",
          "type": "address"
        }
      ],
      "stateMutability": "view",
      "type": "function",
      "constant": true
    },
    {
      "inputs": [],
      "name": "ownerToRounds",
      "outputs": [
        {
          "internalType": "uint256[]",
          "name": "",
          "type": "uint256[]"
        }
      ],
      "stateMutability": "view",
      "type": "function",
      "constant": true
    }
  ],
  "bytecode": "0x60806040523480156200001157600080fd5b506040516200474e3803806200474e8339818101604052810190620000379190620001f5565b6040518060400160405280600481526020017f43686970000000000000000000000000000000000000000000000000000000008152506040518060400160405280600381526020017f43484900000000000000000000000000000000000000000000000000000000008152508160039080519060200190620000bb9291906200012e565b508060049080519060200190620000d49291906200012e565b505050600160058190555033600760006101000a81548173ffffffffffffffffffffffffffffffffffffffff021916908373ffffffffffffffffffffffffffffffffffffffff1602179055508060068190555050620002aa565b8280546200013c906200022b565b90600052602060002090601f016020900481019282620001605760008555620001ac565b82601f106200017b57805160ff1916838001178555620001ac565b82800160010185558215620001ac579182015b82811115620001ab5782518255916020019190600101906200018e565b5b509050620001bb9190620001bf565b5090565b5b80821115620001da576000816000905550600101620001c0565b5090565b600081519050620001ef8162000290565b92915050565b6000602082840312156200020857600080fd5b60006200021884828501620001de565b91505092915050565b6000819050919050565b600060028204905060018216806200024457607f821691505b602082108114156200025b576200025a62000261565b5b50919050565b7f4e487b7100000000000000000000000000000000000000000000000000000000600052602260045260246000fd5b6200029b8162000221565b8114620002a757600080fd5b50565b61449480620002ba6000396000f3fe6080604052600436106101fd5760003560e01c80637dc379fa1161010d578063a4821719116100a0578063c4c6710d1161006f578063c4c6710d146107f9578063dd62ed3e14610822578063e149fac21461085f578063e2bae2f31461089c578063e479ee7b146108c75761020c565b8063a48217191461074c578063a78df7d214610756578063a9059cbb14610793578063aa9ef46a146107d05761020c565b80638c65c81f116100dc5780638c65c81f146106655780638f1327c0146106a457806395d89b41146106e4578063a457c2d71461070f5761020c565b80637dc379fa146105a857806381d89b34146105e85780638270c41e14610613578063852bfc031461063c5761020c565b8063313ce5671161019057806350b447121161015f57806350b447121461049857806357598697146104d85780636e9960c31461051557806370a08231146105405780637b4fd96e1461057d5761020c565b8063313ce567146103b6578063378f636e146103e1578063395093511461041e57806344db03fb1461045b5761020c565b806318160ddd116101cc57806318160ddd146102d457806323b872dd146102ff57806327f646341461033c5780632b08e824146103795761020c565b8063054e96711461021657806306fdde0314610241578063095ea7b31461026c5780631507d591146102a95761020c565b3661020c5761020a6108f0565b005b6102146108f0565b005b34801561022257600080fd5b5061022b610963565b6040516102389190613e8b565b60405180910390f35b34801561024d57600080fd5b50610256610c50565b6040516102639190613ec8565b60405180910390f35b34801561027857600080fd5b50610293600480360381019061028e91906137b2565b610ce2565b6040516102a09190613ead565b60405180910390f35b3480156102b557600080fd5b506102be610d00565b6040516102cb919061400a565b60405180910390f35b3480156102e057600080fd5b506102e9610d0d565b6040516102f6919061400a565b60405180910390f35b34801561030b57600080fd5b5061032660048036038101906103219190613763565b610d17565b6040516103339190613ead565b60405180910390f35b34801561034857600080fd5b50610363600480360381019061035e9190613817565b610e18565b604051610370919061400a565b60405180910390f35b34801561038557600080fd5b506103a0600480360381019061039b9190613817565b610e35565b6040516103ad9190613d85565b60405180910390f35b3480156103c257600080fd5b506103cb610e72565b6040516103d8919061414d565b60405180910390f35b3480156103ed57600080fd5b5061040860048036038101906104039190613817565b610e7b565b604051610415919061400a565b60405180910390f35b34801561042a57600080fd5b50610445600480360381019061044091906137b2565b611176565b6040516104529190613ead565b60405180910390f35b34801561046757600080fd5b50610482600480360381019061047d9190613817565b611222565b60405161048f919061400a565b60405180910390f35b3480156104a457600080fd5b506104bf60048036038101906104ba9190613817565b611375565b6040516104cf9493929190614108565b60405180910390f35b3480156104e457600080fd5b506104ff60048036038101906104fa9190613817565b6113c2565b60405161050c9190613e8b565b60405180910390f35b34801561052157600080fd5b5061052a6117f5565b6040516105379190613d85565b60405180910390f35b34801561054c57600080fd5b50610567600480360381019061056291906136fe565b61181f565b604051610574919061400a565b60405180910390f35b34801561058957600080fd5b50610592611867565b60405161059f919061400a565b60405180910390f35b3480156105b457600080fd5b506105cf60048036038101906105ca9190613817565b61186d565b6040516105df9493929190614108565b60405180910390f35b3480156105f457600080fd5b506105fd6119d1565b60405161060a9190613e8b565b60405180910390f35b34801561061f57600080fd5b5061063a60048036038101906106359190613817565b611c4e565b005b34801561064857600080fd5b50610663600480360381019061065e9190613817565b611cb2565b005b34801561067157600080fd5b5061068c60048036038101906106879190613817565b611e05565b60405161069b9392919061404e565b60405180910390f35b3480156106b057600080fd5b506106cb60048036038101906106c69190613817565b611e5f565b6040516106db9493929190614085565b60405180910390f35b3480156106f057600080fd5b506106f9612028565b6040516107069190613ec8565b60405180910390f35b34801561071b57600080fd5b50610736600480360381019061073191906137b2565b6120ba565b6040516107439190613ead565b60405180910390f35b6107546108f0565b005b34801561076257600080fd5b5061077d60048036038101906107789190613817565b6121ae565b60405161078a919061400a565b60405180910390f35b34801561079f57600080fd5b506107ba60048036038101906107b591906137b2565b6121fd565b6040516107c79190613ead565b60405180910390f35b3480156107dc57600080fd5b506107f760048036038101906107f29190613817565b61221b565b005b34801561080557600080fd5b50610820600480360381019061081b91906138cc565b61248b565b005b34801561082e57600080fd5b5061084960048036038101906108449190613727565b612796565b604051610856919061400a565b60405180910390f35b34801561086b57600080fd5b5061088660048036038101906108819190613817565b61281d565b6040516108939190613d85565b60405180910390f35b3480156108a857600080fd5b506108b161285a565b6040516108be9190613e8b565b60405180910390f35b3480156108d357600080fd5b506108ee60048036038101906108e99190613869565b612ad7565b005b6006543410156108ff57600080fd5b6006543461090d9190614213565b6000803373ffffffffffffffffffffffffffffffffffffffff1673ffffffffffffffffffffffffffffffffffffffff168152602001908152602001600020600082825461095a91906141bd565b92505081905550565b6060600080600060088054905067ffffffffffffffff8111156109af577f4e487b7100000000000000000000000000000000000000000000000000000000600052604160045260246000fd5b6040519080825280602002602001820160405280156109dd5781602001602082028036833780820191505090505b5090505b600880549050831015610b2d573373ffffffffffffffffffffffffffffffffffffffff16600c600085815260200190815260200160002060009054906101000a900473ffffffffffffffffffffffffffffffffffffffff1673ffffffffffffffffffffffffffffffffffffffff161415610b1a5760088381548110610a8f577f4e487b7100000000000000000000000000000000000000000000000000000000600052603260045260246000fd5b906000526020600020906004020160030160009054906101000a900460ff16610b19576000610abd84611222565b1115610b185782818381518110610afd577f4e487b7100000000000000000000000000000000000000000000000000000000600052603260045260246000fd5b6020026020010181815250508180610b1490614332565b9250505b5b5b8280610b2590614332565b9350506109e1565b60008267ffffffffffffffff811115610b6f577f4e487b7100000000000000000000000000000000000000000000000000000000600052604160045260246000fd5b604051908082528060200260200182016040528015610b9d5781602001602082028036833780820191505090505b509050600093505b82841015610c4657818481518110610be6577f4e487b7100000000000000000000000000000000000000000000000000000000600052603260045260246000fd5b6020026020010151818581518110610c27577f4e487b7100000000000000000000000000000000000000000000000000000000600052603260045260246000fd5b6020026020010181815250508380610c3e90614332565b945050610ba5565b8094505050505090565b606060038054610c5f90614300565b80601f0160208091040260200160405190810160405280929190818152602001828054610c8b90614300565b8015610cd85780601f10610cad57610100808354040283529160200191610cd8565b820191906000526020600020905b815481529060010190602001808311610cbb57829003601f168201915b5050505050905090565b6000610cf6610cef612d1f565b8484612d27565b6001905092915050565b6000600980549050905090565b6000600254905090565b6000610d24848484612ef2565b6000600160008673ffffffffffffffffffffffffffffffffffffffff1673ffffffffffffffffffffffffffffffffffffffff1681526020019081526020016000206000610d6f612d1f565b73ffffffffffffffffffffffffffffffffffffffff1673ffffffffffffffffffffffffffffffffffffffff16815260200190815260200160002054905082811015610def576040517f08c379a0000000000000000000000000000000000000000000000000000000008152600401610de690613f6a565b60405180910390fd5b610e0c85610dfb612d1f565b8584610e079190614244565b612d27565b60019150509392505050565b6000600a6000838152602001908152602001600020549050919050565b6000600c600083815260200190815260200160002060009054906101000a900473ffffffffffffffffffffffffffffffffffffffff169050919050565b60006012905090565b6000806000905060008060098581548110610ebf577f4e487b7100000000000000000000000000000000000000000000000000000000600052603260045260246000fd5b906000526020600020906004020160020160009054906101000a900473ffffffffffffffffffffffffffffffffffffffff1690505b60098581548110610f2e577f4e487b7100000000000000000000000000000000000000000000000000000000600052603260045260246000fd5b90600052602060002090600402016003018054905082101561116b57600860098681548110610f86577f4e487b7100000000000000000000000000000000000000000000000000000000600052603260045260246000fd5b90600052602060002090600402016003018381548110610fcf577f4e487b7100000000000000000000000000000000000000000000000000000000600052603260045260246000fd5b906000526020600020015481548110611011577f4e487b7100000000000000000000000000000000000000000000000000000000600052603260045260246000fd5b906000526020600020906004020160030160009054906101000a900460ff16611158578073ffffffffffffffffffffffffffffffffffffffff1663e9f9d28b6009878154811061108a577f4e487b7100000000000000000000000000000000000000000000000000000000600052603260045260246000fd5b906000526020600020906004020160030184815481106110d3577f4e487b7100000000000000000000000000000000000000000000000000000000600052603260045260246000fd5b90600052602060002001546040518263ffffffff1660e01b81526004016110fa919061400a565b60206040518083038186803b15801561111257600080fd5b505afa158015611126573d6000803e3d6000fd5b505050506040513d601f19601f8201168201806040525081019061114a9190613840565b8361115591906141bd565b92505b818061116390614332565b925050610ef4565b829350505050919050565b6000611218611183612d1f565b848460016000611191612d1f565b73ffffffffffffffffffffffffffffffffffffffff1673ffffffffffffffffffffffffffffffffffffffff16815260200190815260200160002060008873ffffffffffffffffffffffffffffffffffffffff1673ffffffffffffffffffffffffffffffffffffffff1681526020019081526020016000205461121391906141bd565b612d27565b6001905092915050565b6000806008838154811061125f577f4e487b7100000000000000000000000000000000000000000000000000000000600052603260045260246000fd5b90600052602060002090600402016002015490506000600982815481106112af577f4e487b7100000000000000000000000000000000000000000000000000000000600052603260045260246000fd5b906000526020600020906004020160020160009054906101000a900473ffffffffffffffffffffffffffffffffffffffff1673ffffffffffffffffffffffffffffffffffffffff1663e9f9d28b856040518263ffffffff1660e01b8152600401611319919061400a565b60206040518083038186803b15801561133157600080fd5b505afa158015611345573d6000803e3d6000fd5b505050506040513d601f19601f820116820180604052508101906113699190613840565b90508092505050919050565b6008818154811061138557600080fd5b90600052602060002090600402016000915090508060000154908060010154908060020154908060030160009054906101000a900460ff16905084565b6060600080600060098581548110611403577f4e487b7100000000000000000000000000000000000000000000000000000000600052603260045260246000fd5b90600052602060002090600402016003018054905067ffffffffffffffff811115611457577f4e487b7100000000000000000000000000000000000000000000000000000000600052604160045260246000fd5b6040519080825280602002602001820160405280156114855781602001602082028036833780820191505090505b5090505b600985815481106114c3577f4e487b7100000000000000000000000000000000000000000000000000000000600052603260045260246000fd5b9060005260206000209060040201600301805490508310156116d05760086009868154811061151b577f4e487b7100000000000000000000000000000000000000000000000000000000600052603260045260246000fd5b90600052602060002090600402016003018481548110611564577f4e487b7100000000000000000000000000000000000000000000000000000000600052603260045260246000fd5b9060005260206000200154815481106115a6577f4e487b7100000000000000000000000000000000000000000000000000000000600052603260045260246000fd5b906000526020600020906004020160030160009054906101000a900460ff166116bd57600061166160098781548110611608577f4e487b7100000000000000000000000000000000000000000000000000000000600052603260045260246000fd5b90600052602060002090600402016003018581548110611651577f4e487b7100000000000000000000000000000000000000000000000000000000600052603260045260246000fd5b9060005260206000200154611222565b11156116bc57828183815181106116a1577f4e487b7100000000000000000000000000000000000000000000000000000000600052603260045260246000fd5b60200260200101818152505081806116b890614332565b9250505b5b82806116c890614332565b935050611489565b60008267ffffffffffffffff811115611712577f4e487b7100000000000000000000000000000000000000000000000000000000600052604160045260246000fd5b6040519080825280602002602001820160405280156117405781602001602082028036833780820191505090505b509050600093505b828410156117e957818481518110611789577f4e487b7100000000000000000000000000000000000000000000000000000000600052603260045260246000fd5b60200260200101518185815181106117ca577f4e487b7100000000000000000000000000000000000000000000000000000000600052603260045260246000fd5b60200260200101818152505083806117e190614332565b945050611748565b80945050505050919050565b6000600760009054906101000a900473ffffffffffffffffffffffffffffffffffffffff16905090565b60008060008373ffffffffffffffffffffffffffffffffffffffff1673ffffffffffffffffffffffffffffffffffffffff168152602001908152602001600020549050919050565b60065481565b60008060008061187c85613171565b61188557600080fd5b600885815481106118bf577f4e487b7100000000000000000000000000000000000000000000000000000000600052603260045260246000fd5b9060005260206000209060040201600001546008868154811061190b577f4e487b7100000000000000000000000000000000000000000000000000000000600052603260045260246000fd5b90600052602060002090600402016001015460088781548110611957577f4e487b7100000000000000000000000000000000000000000000000000000000600052603260045260246000fd5b906000526020600020906004020160020154600888815481106119a3577f4e487b7100000000000000000000000000000000000000000000000000000000600052603260045260246000fd5b906000526020600020906004020160030160009054906101000a900460ff1693509350935093509193509193565b6060600080600060088054905067ffffffffffffffff811115611a1d577f4e487b7100000000000000000000000000000000000000000000000000000000600052604160045260246000fd5b604051908082528060200260200182016040528015611a4b5781602001602082028036833780820191505090505b5090505b600880549050831015611b2b573373ffffffffffffffffffffffffffffffffffffffff16600c600085815260200190815260200160002060009054906101000a900473ffffffffffffffffffffffffffffffffffffffff1673ffffffffffffffffffffffffffffffffffffffff161415611b185782818381518110611afd577f4e487b7100000000000000000000000000000000000000000000000000000000600052603260045260246000fd5b6020026020010181815250508180611b1490614332565b9250505b8280611b2390614332565b935050611a4f565b60008267ffffffffffffffff811115611b6d577f4e487b7100000000000000000000000000000000000000000000000000000000600052604160045260246000fd5b604051908082528060200260200182016040528015611b9b5781602001602082028036833780820191505090505b509050600093505b82841015611c4457818481518110611be4577f4e487b7100000000000000000000000000000000000000000000000000000000600052603260045260246000fd5b6020026020010151818581518110611c25577f4e487b7100000000000000000000000000000000000000000000000000000000600052603260045260246000fd5b6020026020010181815250508380611c3c90614332565b945050611ba3565b8094505050505090565b600760009054906101000a900473ffffffffffffffffffffffffffffffffffffffff1673ffffffffffffffffffffffffffffffffffffffff163373ffffffffffffffffffffffffffffffffffffffff1614611ca857600080fd5b8060068190555050565b60026005541415611cf8576040517f08c379a0000000000000000000000000000000000000000000000000000000008152600401611cef90613fca565b60405180910390fd5b60026005819055503373ffffffffffffffffffffffffffffffffffffffff16600b600083815260200190815260200160002060009054906101000a900473ffffffffffffffffffffffffffffffffffffffff1673ffffffffffffffffffffffffffffffffffffffff1614611d6b57600080fd5b6000600a60008381526020019081526020016000205490506000611d8e83610e7b565b9050808211611d9c57600080fd5b611db233848385611dad9190614244565b6131dd565b7f8cb51e99200191abb18981a953403d7494c5b9305e4c1aafe4b1609c6a50854e33848385611de19190614244565b604051611df093929190613df3565b60405180910390a15050600160058190555050565b60098181548110611e1557600080fd5b90600052602060002090600402016000915090508060000154908060010154908060020160009054906101000a900473ffffffffffffffffffffffffffffffffffffffff16905083565b60008060006060611e6f8561336e565b611e7857600080fd5b60098581548110611eb2577f4e487b7100000000000000000000000000000000000000000000000000000000600052603260045260246000fd5b90600052602060002090600402016000015460098681548110611efe577f4e487b7100000000000000000000000000000000000000000000000000000000600052603260045260246000fd5b90600052602060002090600402016001015460098781548110611f4a577f4e487b7100000000000000000000000000000000000000000000000000000000600052603260045260246000fd5b906000526020600020906004020160020160009054906101000a900473ffffffffffffffffffffffffffffffffffffffff1660098881548110611fb6577f4e487b7100000000000000000000000000000000000000000000000000000000600052603260045260246000fd5b90600052602060002090600402016003018080548060200260200160405190810160405280929190818152602001828054801561201257602002820191906000526020600020905b815481526020019060010190808311611ffe575b5050505050905093509350935093509193509193565b60606004805461203790614300565b80601f016020809104026020016040519081016040528092919081815260200182805461206390614300565b80156120b05780601f10612085576101008083540402835291602001916120b0565b820191906000526020600020905b81548152906001019060200180831161209357829003601f168201915b5050505050905090565b600080600160006120c9612d1f565b73ffffffffffffffffffffffffffffffffffffffff1673ffffffffffffffffffffffffffffffffffffffff16815260200190815260200160002060008573ffffffffffffffffffffffffffffffffffffffff1673ffffffffffffffffffffffffffffffffffffffff16815260200190815260200160002054905082811015612186576040517f08c379a000000000000000000000000000000000000000000000000000000000815260040161217d90613fea565b60405180910390fd5b6121a3612191612d1f565b85858461219e9190614244565b612d27565b600191505092915050565b600080600a600084815260200190815260200160002054905060006121d284610e7b565b9050808211156121f15780826121e89190614244565b925050506121f8565b6000925050505b919050565b600061221161220a612d1f565b8484612ef2565b6001905092915050565b60026005541415612261576040517f08c379a000000000000000000000000000000000000000000000000000000000815260040161225890613fca565b60405180910390fd5b60026005819055503373ffffffffffffffffffffffffffffffffffffffff16600c600083815260200190815260200160002060009054906101000a900473ffffffffffffffffffffffffffffffffffffffff1673ffffffffffffffffffffffffffffffffffffffff16146122d457600080fd5b6008818154811061230e577f4e487b7100000000000000000000000000000000000000000000000000000000600052603260045260246000fd5b906000526020600020906004020160030160009054906101000a900460ff161561233757600080fd5b600060088281548110612373577f4e487b7100000000000000000000000000000000000000000000000000000000600052603260045260246000fd5b9060005260206000209060040201600201549050600061239283611222565b905060008114156123ab576123a6836133da565b612443565b6000600a60008481526020019081526020016000205490508082106123da576123d53384846131dd565b612438565b600081146123ee576123ed3384836131dd565b5b612437600b600085815260200190815260200160002060009054906101000a900473ffffffffffffffffffffffffffffffffffffffff163384846124329190614244565b612d27565b5b612441846133da565b505b7f9bbae0d84b173ff44f803ee9b4bd25e4f6a8e2d87c963a7d7bae11c76f2c15ba33848360405161247693929190613df3565b60405180910390a15050600160058190555050565b6124948161336e565b6124d3576040517f08c379a00000000000000000000000000000000000000000000000000000000081526004016124ca90613f2a565b60405180910390fd5b6009818154811061250d577f4e487b7100000000000000000000000000000000000000000000000000000000600052603260045260246000fd5b906000526020600020906004020160020160009054906101000a900473ffffffffffffffffffffffffffffffffffffffff1673ffffffffffffffffffffffffffffffffffffffff1663b203384a8285856040518463ffffffff1660e01b815260040161257b939291906140d1565b60206040518083038186803b15801561259357600080fd5b505afa1580156125a7573d6000803e3d6000fd5b505050506040513d601f19601f820116820180604052508101906125cb91906137ee565b6125d457600080fd5b6125df338284613441565b60006040518060800160405280858152602001848152602001838152602001600015158152509050600881908060018154018082558091505060019003906000526020600020906004020160009091909190915060008201518160000155602082015181600101556040820151816002015560608201518160030160006101000a81548160ff0219169083151502179055505050600060016008805490506126879190614244565b9050600983815481106126c3577f4e487b7100000000000000000000000000000000000000000000000000000000600052603260045260246000fd5b906000526020600020906004020160030181908060018154018082558091505060019003906000526020600020016000909190919091505533600c600083815260200190815260200160002060006101000a81548173ffffffffffffffffffffffffffffffffffffffff021916908373ffffffffffffffffffffffffffffffffffffffff1602179055507f9e02fe0905a63ede4e75ef8a8d804f396ff77e6a4ef7e4e736ecac5c6553bd483382878787600060405161278796959493929190613e2a565b60405180910390a15050505050565b6000600160008473ffffffffffffffffffffffffffffffffffffffff1673ffffffffffffffffffffffffffffffffffffffff16815260200190815260200160002060008373ffffffffffffffffffffffffffffffffffffffff1673ffffffffffffffffffffffffffffffffffffffff16815260200190815260200160002054905092915050565b6000600b600083815260200190815260200160002060009054906101000a900473ffffffffffffffffffffffffffffffffffffffff169050919050565b6060600080600060098054905067ffffffffffffffff8111156128a6577f4e487b7100000000000000000000000000000000000000000000000000000000600052604160045260246000fd5b6040519080825280602002602001820160405280156128d45781602001602082028036833780820191505090505b5090505b6009805490508310156129b4573373ffffffffffffffffffffffffffffffffffffffff16600b600085815260200190815260200160002060009054906101000a900473ffffffffffffffffffffffffffffffffffffffff1673ffffffffffffffffffffffffffffffffffffffff1614156129a15782818381518110612986577f4e487b7100000000000000000000000000000000000000000000000000000000600052603260045260246000fd5b602002602001018181525050818061299d90614332565b9250505b82806129ac90614332565b9350506128d8565b60008267ffffffffffffffff8111156129f6577f4e487b7100000000000000000000000000000000000000000000000000000000600052604160045260246000fd5b604051908082528060200260200182016040528015612a245781602001602082028036833780820191505090505b509050600093505b82841015612acd57818481518110612a6d577f4e487b7100000000000000000000000000000000000000000000000000000000600052603260045260246000fd5b6020026020010151818581518110612aae577f4e487b7100000000000000000000000000000000000000000000000000000000600052603260045260246000fd5b6020026020010181815250508380612ac590614332565b945050612a2c565b8094505050505090565b8273ffffffffffffffffffffffffffffffffffffffff1663a713100d85846040518363ffffffff1660e01b8152600401612b12929190614025565b60206040518083038186803b158015612b2a57600080fd5b505afa158015612b3e573d6000803e3d6000fd5b505050506040513d601f19601f82011682018060405250810190612b6291906137ee565b612b6b57600080fd5b612b73613602565b8281602001818152505083816040019073ffffffffffffffffffffffffffffffffffffffff16908173ffffffffffffffffffffffffffffffffffffffff1681525050848160000181815250506009819080600181540180825580915050600190039060005260206000209060040201600090919091909150600082015181600001556020820151816001015560408201518160020160006101000a81548173ffffffffffffffffffffffffffffffffffffffff021916908373ffffffffffffffffffffffffffffffffffffffff1602179055506060820151816003019080519060200190612c62929190613640565b50505060006001600980549050612c799190614244565b905033600b600083815260200190815260200160002060006101000a81548173ffffffffffffffffffffffffffffffffffffffff021916908373ffffffffffffffffffffffffffffffffffffffff160217905550612cd8338285613441565b7f8140754f2b3078ad52935dad3f03c1438000126c965667241c27b3d1108013a83382878787604051612d0f959493929190613da0565b60405180910390a1505050505050565b600033905090565b600073ffffffffffffffffffffffffffffffffffffffff168373ffffffffffffffffffffffffffffffffffffffff161415612d97576040517f08c379a0000000000000000000000000000000000000000000000000000000008152600401612d8e90613faa565b60405180910390fd5b600073ffffffffffffffffffffffffffffffffffffffff168273ffffffffffffffffffffffffffffffffffffffff161415612e07576040517f08c379a0000000000000000000000000000000000000000000000000000000008152600401612dfe90613f0a565b60405180910390fd5b80600160008573ffffffffffffffffffffffffffffffffffffffff1673ffffffffffffffffffffffffffffffffffffffff16815260200190815260200160002060008473ffffffffffffffffffffffffffffffffffffffff1673ffffffffffffffffffffffffffffffffffffffff168152602001908152602001600020819055508173ffffffffffffffffffffffffffffffffffffffff168373ffffffffffffffffffffffffffffffffffffffff167f8c5be1e5ebec7d5bd14f71427d1e84f3dd0314c0f7b2291e5b200ac8c7c3b92583604051612ee5919061400a565b60405180910390a3505050565b600073ffffffffffffffffffffffffffffffffffffffff168373ffffffffffffffffffffffffffffffffffffffff161415612f62576040517f08c379a0000000000000000000000000000000000000000000000000000000008152600401612f5990613f8a565b60405180910390fd5b600073ffffffffffffffffffffffffffffffffffffffff168273ffffffffffffffffffffffffffffffffffffffff161415612fd2576040517f08c379a0000000000000000000000000000000000000000000000000000000008152600401612fc990613eea565b60405180910390fd5b612fdd8383836135fd565b60008060008573ffffffffffffffffffffffffffffffffffffffff1673ffffffffffffffffffffffffffffffffffffffff16815260200190815260200160002054905081811015613063576040517f08c379a000000000000000000000000000000000000000000000000000000000815260040161305a90613f4a565b60405180910390fd5b818161306f9190614244565b6000808673ffffffffffffffffffffffffffffffffffffffff1673ffffffffffffffffffffffffffffffffffffffff16815260200190815260200160002081905550816000808573ffffffffffffffffffffffffffffffffffffffff1673ffffffffffffffffffffffffffffffffffffffff16815260200190815260200160002060008282546130ff91906141bd565b925050819055508273ffffffffffffffffffffffffffffffffffffffff168473ffffffffffffffffffffffffffffffffffffffff167fddf252ad1be2c89b69c2b068fc378daa952ba7f163c4a11628f55a4df523b3ef84604051613163919061400a565b60405180910390a350505050565b60008073ffffffffffffffffffffffffffffffffffffffff16600c600084815260200190815260200160002060009054906101000a900473ffffffffffffffffffffffffffffffffffffffff1673ffffffffffffffffffffffffffffffffffffffff1614159050919050565b600073ffffffffffffffffffffffffffffffffffffffff168373ffffffffffffffffffffffffffffffffffffffff16141561324d576040517f08c379a000000000000000000000000000000000000000000000000000000000815260040161324490613eea565b60405180910390fd5b6132568261336e565b613295576040517f08c379a000000000000000000000000000000000000000000000000000000000815260040161328c90613f2a565b60405180910390fd5b6000600a6000848152602001908152602001600020549050818110156132f0576040517f08c379a00000000000000000000000000000000000000000000000000000000081526004016132e790613f4a565b60405180910390fd5b81816132fc9190614244565b600a600085815260200190815260200160002081905550816000808673ffffffffffffffffffffffffffffffffffffffff1673ffffffffffffffffffffffffffffffffffffffff168152602001908152602001600020600082825461336191906141bd565b9250508190555050505050565b60008073ffffffffffffffffffffffffffffffffffffffff16600b600084815260200190815260200160002060009054906101000a900473ffffffffffffffffffffffffffffffffffffffff1673ffffffffffffffffffffffffffffffffffffffff1614159050919050565b600160088281548110613416577f4e487b7100000000000000000000000000000000000000000000000000000000600052603260045260246000fd5b906000526020600020906004020160030160006101000a81548160ff02191690831515021790555050565b600073ffffffffffffffffffffffffffffffffffffffff168373ffffffffffffffffffffffffffffffffffffffff1614156134b1576040517f08c379a00000000000000000000000000000000000000000000000000000000081526004016134a890613f8a565b60405180910390fd5b6134ba8261336e565b6134f9576040517f08c379a00000000000000000000000000000000000000000000000000000000081526004016134f090613f2a565b60405180910390fd5b60008060008573ffffffffffffffffffffffffffffffffffffffff1673ffffffffffffffffffffffffffffffffffffffff1681526020019081526020016000205490508181101561357f576040517f08c379a000000000000000000000000000000000000000000000000000000000815260040161357690613f4a565b60405180910390fd5b818161358b9190614244565b6000808673ffffffffffffffffffffffffffffffffffffffff1673ffffffffffffffffffffffffffffffffffffffff1681526020019081526020016000208190555081600a600085815260200190815260200160002060008282546135f091906141bd565b9250508190555050505050565b505050565b60405180608001604052806000815260200160008152602001600073ffffffffffffffffffffffffffffffffffffffff168152602001606081525090565b82805482825590600052602060002090810192821561367c579160200282015b8281111561367b578251825591602001919060010190613660565b5b509050613689919061368d565b5090565b5b808211156136a657600081600090555060010161368e565b5090565b6000813590506136b981614419565b92915050565b6000815190506136ce81614430565b92915050565b6000813590506136e381614447565b92915050565b6000815190506136f881614447565b92915050565b60006020828403121561371057600080fd5b600061371e848285016136aa565b91505092915050565b6000806040838503121561373a57600080fd5b6000613748858286016136aa565b9250506020613759858286016136aa565b9150509250929050565b60008060006060848603121561377857600080fd5b6000613786868287016136aa565b9350506020613797868287016136aa565b92505060406137a8868287016136d4565b9150509250925092565b600080604083850312156137c557600080fd5b60006137d3858286016136aa565b92505060206137e4858286016136d4565b9150509250929050565b60006020828403121561380057600080fd5b600061380e848285016136bf565b91505092915050565b60006020828403121561382957600080fd5b6000613837848285016136d4565b91505092915050565b60006020828403121561385257600080fd5b6000613860848285016136e9565b91505092915050565b6000806000806080858703121561387f57600080fd5b600061388d878288016136d4565b945050602061389e878288016136aa565b93505060406138af878288016136d4565b92505060606138c0878288016136d4565b91505092959194509250565b6000806000606084860312156138e157600080fd5b60006138ef868287016136d4565b9350506020613900868287016136d4565b9250506040613911868287016136d4565b9150509250925092565b60006139278383613d58565b60208301905092915050565b61393c81614278565b82525050565b600061394d82614178565b613957818561419b565b935061396283614168565b8060005b8381101561399357815161397a888261391b565b97506139858361418e565b925050600181019050613966565b5085935050505092915050565b6139a98161428a565b82525050565b60006139ba82614183565b6139c481856141ac565b93506139d48185602086016142cd565b6139dd81614408565b840191505092915050565b60006139f56023836141ac565b91507f45524332303a207472616e7366657220746f20746865207a65726f206164647260008301527f65737300000000000000000000000000000000000000000000000000000000006020830152604082019050919050565b6000613a5b6022836141ac565b91507f45524332303a20617070726f766520746f20746865207a65726f20616464726560008301527f73730000000000000000000000000000000000000000000000000000000000006020830152604082019050919050565b6000613ac16024836141ac565b91507f4f70657261746f7220717565727920666f72206e6f6e6578697374656e74207260008301527f6f756e64000000000000000000000000000000000000000000000000000000006020830152604082019050919050565b6000613b276026836141ac565b91507f45524332303a207472616e7366657220616d6f756e742065786365656473206260008301527f616c616e636500000000000000000000000000000000000000000000000000006020830152604082019050919050565b6000613b8d6028836141ac565b91507f45524332303a207472616e7366657220616d6f756e742065786365656473206160008301527f6c6c6f77616e63650000000000000000000000000000000000000000000000006020830152604082019050919050565b6000613bf36025836141ac565b91507f45524332303a207472616e736665722066726f6d20746865207a65726f20616460008301527f64726573730000000000000000000000000000000000000000000000000000006020830152604082019050919050565b6000613c596024836141ac565b91507f45524332303a20617070726f76652066726f6d20746865207a65726f2061646460008301527f72657373000000000000000000000000000000000000000000000000000000006020830152604082019050919050565b6000613cbf601f836141ac565b91507f5265656e7472616e637947756172643a207265656e7472616e742063616c6c006000830152602082019050919050565b6000613cff6025836141ac565b91507f45524332303a2064656372656173656420616c6c6f77616e63652062656c6f7760008301527f207a65726f0000000000000000000000000000000000000000000000000000006020830152604082019050919050565b613d61816142b6565b82525050565b613d70816142b6565b82525050565b613d7f816142c0565b82525050565b6000602082019050613d9a6000830184613933565b92915050565b600060a082019050613db56000830188613933565b613dc26020830187613d67565b613dcf6040830186613933565b613ddc6060830185613d67565b613de96080830184613d67565b9695505050505050565b6000606082019050613e086000830186613933565b613e156020830185613d67565b613e226040830184613d67565b949350505050565b600060c082019050613e3f6000830189613933565b613e4c6020830188613d67565b613e596040830187613d67565b613e666060830186613d67565b613e736080830185613d67565b613e8060a08301846139a0565b979650505050505050565b60006020820190508181036000830152613ea58184613942565b905092915050565b6000602082019050613ec260008301846139a0565b92915050565b60006020820190508181036000830152613ee281846139af565b905092915050565b60006020820190508181036000830152613f03816139e8565b9050919050565b60006020820190508181036000830152613f2381613a4e565b9050919050565b60006020820190508181036000830152613f4381613ab4565b9050919050565b60006020820190508181036000830152613f6381613b1a565b9050919050565b60006020820190508181036000830152613f8381613b80565b9050919050565b60006020820190508181036000830152613fa381613be6565b9050919050565b60006020820190508181036000830152613fc381613c4c565b9050919050565b60006020820190508181036000830152613fe381613cb2565b9050919050565b6000602082019050818103600083015261400381613cf2565b9050919050565b600060208201905061401f6000830184613d67565b92915050565b600060408201905061403a6000830185613d67565b6140476020830184613d67565b9392505050565b60006060820190506140636000830186613d67565b6140706020830185613d67565b61407d6040830184613933565b949350505050565b600060808201905061409a6000830187613d67565b6140a76020830186613d67565b6140b46040830185613933565b81810360608301526140c68184613942565b905095945050505050565b60006060820190506140e66000830186613d67565b6140f36020830185613d67565b6141006040830184613d67565b949350505050565b600060808201905061411d6000830187613d67565b61412a6020830186613d67565b6141376040830185613d67565b61414460608301846139a0565b95945050505050565b60006020820190506141626000830184613d76565b92915050565b6000819050602082019050919050565b600081519050919050565b600081519050919050565b6000602082019050919050565b600082825260208201905092915050565b600082825260208201905092915050565b60006141c8826142b6565b91506141d3836142b6565b9250827fffffffffffffffffffffffffffffffffffffffffffffffffffffffffffffffff038211156142085761420761437b565b5b828201905092915050565b600061421e826142b6565b9150614229836142b6565b925082614239576142386143aa565b5b828204905092915050565b600061424f826142b6565b915061425a836142b6565b92508282101561426d5761426c61437b565b5b828203905092915050565b600061428382614296565b9050919050565b60008115159050919050565b600073ffffffffffffffffffffffffffffffffffffffff82169050919050565b6000819050919050565b600060ff82169050919050565b60005b838110156142eb5780820151818401526020810190506142d0565b838111156142fa576000848401525b50505050565b6000600282049050600182168061431857607f821691505b6020821081141561432c5761432b6143d9565b5b50919050565b600061433d826142b6565b91507fffffffffffffffffffffffffffffffffffffffffffffffffffffffffffffffff8214156143705761436f61437b565b5b600182019050919050565b7f4e487b7100000000000000000000000000000000000000000000000000000000600052601160045260246000fd5b7f4e487b7100000000000000000000000000000000000000000000000000000000600052601260045260246000fd5b7f4e487b7100000000000000000000000000000000000000000000000000000000600052602260045260246000fd5b6000601f19601f8301169050919050565b61442281614278565b811461442d57600080fd5b50565b6144398161428a565b811461444457600080fd5b50565b614450816142b6565b811461445b57600080fd5b5056fea26469706673582212205f077523324327ad7f2464ad4373c506d73edce3d87b152da5c374939326b3c464736f6c63430008000033",
  "immutableReferences": {},
  "source": "// SPDX-License-Identifier: MIT\r\n\r\npragma solidity ^0.8.0;\r\n\r\nimport \"./CustomERC20.sol\";\r\nimport \"@openzeppelin/contracts/security/ReentrancyGuard.sol\";\r\n\r\n\r\nabstract contract checkResultInterface {\r\n    function checkResult(uint ticketId) public view virtual returns (uint256);\r\n}\r\n\r\nabstract contract checkTicketBuyInterface {\r\n    function checkTicketBuy(uint roundId, uint256 _data, uint256 _ticketPrice) public view virtual returns (bool);\r\n}\r\n\r\nabstract contract checkRoundCreateInterface {\r\n    function checkRoundCreate(uint256 _data, uint _endtime) public view virtual returns (bool);\r\n}\r\n\r\ncontract BoNhaCai is CustomERC20, ReentrancyGuard{\r\n    uint256 public token_price;\r\n    address private admin;\r\n    \r\n    constructor(uint256 _price) CustomERC20(\"Chip\", \"CHI\") {\r\n        admin = msg.sender;\r\n        token_price = _price;\r\n    }\r\n\r\n    struct Ticket {\r\n        uint256 data;\r\n        uint256 ticketPrice;\r\n        uint256 roundId;\r\n        bool used;\r\n    }\r\n\r\n    struct Round {\r\n        uint256 data;\r\n        uint256 endTime;\r\n        address resultContract;\r\n        uint256[] ticketIds;\r\n    }\r\n\r\n    Ticket[] public tickets;\r\n    Round[] public rounds;\r\n\r\n    mapping(uint256 => uint256) private _balanceOfRounds;\r\n\r\n    mapping(uint256 => address) private _roundOwners;\r\n\r\n    mapping(uint256 => address) private _ticketOwners;\r\n\r\n    event NewRound(address owner, uint roundId, address resultContract, uint256 endTime, uint balance);\r\n    event NewTicket(address owner, uint ticketId, uint data, uint ticketPrice, uint roundId, bool used);\r\n    event WithDrawTicket(address owner, uint ticketId, uint amount);\r\n    event WithDrawRound(address owner, uint roundId, uint amount);\r\n\r\n    function getAdmin() view public returns(address){\r\n        return admin;\r\n    }\r\n\r\n    function setPriceToken(uint256 _newPrice) public {\r\n        require(msg.sender == admin);\r\n        token_price = _newPrice;\r\n    }\r\n\r\n    function getRound(uint256 _roundId) public view returns(uint256 , uint256 , address , uint256[] memory) {    \r\n        require(_roundExists(_roundId));    \r\n        return (rounds[_roundId].data, rounds[_roundId].endTime, rounds[_roundId].resultContract, rounds[_roundId].ticketIds);\r\n    } \r\n\r\n    function getLengthRounds() public view returns(uint256) {\r\n        return rounds.length;\r\n    }\r\n\r\n\r\n    function getTicket(uint256 _ticketId) public view returns(uint256 , uint256 , uint256 , bool){\r\n        require(_ticketExists(_ticketId));\r\n        return (tickets[_ticketId].data, tickets[_ticketId].ticketPrice, tickets[_ticketId].roundId, tickets[_ticketId].used);\r\n    }\r\n\r\n    function createRound(\r\n        uint256 _data,\r\n        address _resultContract,\r\n        uint256 _endTime,\r\n        uint256 _balance\r\n    ) external {\r\n        require(checkRoundCreateInterface(_resultContract).checkRoundCreate(_data, _endTime));\r\n        Round memory newRound;\r\n        newRound.endTime = _endTime;\r\n        newRound.resultContract = _resultContract;\r\n        newRound.data = _data;\r\n        rounds.push(newRound);\r\n        uint roundId = rounds.length-1;\r\n        _roundOwners[roundId] = msg.sender;\r\n        _transferToRound(msg.sender, roundId, _balance);\r\n        emit NewRound(msg.sender, roundId, _resultContract, _endTime, _balance);\r\n    }\r\n\r\n    function buyTicket(   \r\n        uint256 _data,\r\n        uint256 _price,\r\n        uint256 _roundId\r\n    ) external{\r\n        require(_roundExists(_roundId), \"Operator query for nonexistent round\");\r\n        require(checkTicketBuyInterface(rounds[_roundId].resultContract).checkTicketBuy(_roundId, _data, _price));\r\n        _transferToRound(msg.sender, _roundId, _price);\r\n        Ticket memory newTicket = Ticket(_data, _price, _roundId, false);\r\n        tickets.push(newTicket);\r\n        uint ticketId = tickets.length - 1;\r\n        rounds[_roundId].ticketIds.push(ticketId);\r\n        _ticketOwners[ticketId] = msg.sender;\r\n        emit NewTicket(msg.sender, ticketId, _data, _price, _roundId, false);\r\n    }\r\n\r\n    function _transferToRound(\r\n        address _sender,\r\n        uint256 _roundId,\r\n        uint256 _amount\r\n    ) internal {\r\n        require(_sender != address(0), \"ERC20: transfer from the zero address\");\r\n        require(_roundExists(_roundId), \"Operator query for nonexistent round\");\r\n\r\n        uint256 senderBalance = _balances[_sender];\r\n        require(senderBalance >= _amount, \"ERC20: transfer amount exceeds balance\");\r\n        _balances[_sender] = senderBalance - _amount;\r\n        _balanceOfRounds[_roundId] += _amount;\r\n    }\r\n\r\n    function _transferFromRound(\r\n        address _recipient,\r\n        uint256 _roundId,\r\n        uint256 _amount\r\n    ) internal {\r\n        require(\r\n            _recipient != address(0),\r\n            \"ERC20: transfer to the zero address\"\r\n        );\r\n        require(_roundExists(_roundId), \"Operator query for nonexistent round\");\r\n\r\n        uint256 senderBalance = _balanceOfRounds[_roundId];\r\n        require(\r\n            senderBalance >= _amount,\r\n            \"ERC20: transfer amount exceeds balance\"\r\n        );\r\n        _balanceOfRounds[_roundId] = senderBalance - _amount;\r\n        _balances[_recipient] += _amount;\r\n    }\r\n\r\n    function withDrawTicket (uint ticketId) external nonReentrant{\r\n        require(_ticketOwners[ticketId]==msg.sender);\r\n        require(!tickets[ticketId].used);\r\n        uint256 roundId = tickets[ticketId].roundId;\r\n        uint256 winChip;\r\n        winChip = ticketWinChip(ticketId);\r\n        if(winChip == 0){\r\n            _disableTicket(ticketId);\r\n        }\r\n        else{\r\n            uint256 roundBalance = _balanceOfRounds[roundId];\r\n            if(winChip >= roundBalance){\r\n                _transferFromRound(msg.sender, roundId, winChip);\r\n            }\r\n            else{\r\n                if(roundBalance!=0){\r\n                    _transferFromRound(msg.sender, roundId, roundBalance);\r\n                }              \r\n                _approve(_roundOwners[roundId], msg.sender, roundBalance-winChip);\r\n            }\r\n            _disableTicket(ticketId);\r\n        }\r\n        emit WithDrawTicket(msg.sender, ticketId, winChip);\r\n    }\r\n\r\n    function sumOfWinnerChipOfRound(uint roundId) view public returns (uint256){\r\n        uint sumOfWinChip = 0;\r\n        uint i = 0;\r\n        address resultContract = rounds[roundId].resultContract;\r\n        for(i;i<rounds[roundId].ticketIds.length;i++){\r\n            if(!tickets[rounds[roundId].ticketIds[i]].used)\r\n                sumOfWinChip += checkResultInterface(resultContract).checkResult(rounds[roundId].ticketIds[i]);\r\n        }\r\n        return sumOfWinChip;\r\n    }\r\n\r\n    function checkRoundRemainingBalance(uint256 roundId) public view returns(uint256){\r\n        uint256 balance = _balanceOfRounds[roundId];\r\n        uint256 sumOfWinChip = sumOfWinnerChipOfRound(roundId);\r\n        if(balance > sumOfWinChip){\r\n            return balance - sumOfWinChip;\r\n        }\r\n        else return 0;\r\n    }\r\n\r\n    function withDrawRound(uint256 roundId) external nonReentrant{\r\n        require(_roundOwners[roundId] == msg.sender);\r\n        uint256 balance = _balanceOfRounds[roundId];\r\n        uint256 sumOfWinChip = sumOfWinnerChipOfRound(roundId);\r\n        require(balance > sumOfWinChip);\r\n        _transferFromRound(msg.sender, roundId, balance - sumOfWinChip);\r\n        emit WithDrawRound(msg.sender, roundId, balance - sumOfWinChip);\r\n    }\r\n\r\n    function _roundExists(uint256 _roundId) internal view returns (bool) {\r\n        return _roundOwners[_roundId] != address(0);\r\n    }\r\n\r\n    function _ticketExists(uint256 _ticketId) internal view returns (bool) {\r\n        return _ticketOwners[_ticketId] != address(0);\r\n    }\r\n\r\n    function buyToken() public payable{\r\n        require(msg.value >= token_price);\r\n        _balances[msg.sender] += (msg.value/token_price);\r\n    }\r\n\r\n    function balanceOfRound(uint roundId) public view returns(uint256){\r\n        return _balanceOfRounds[roundId];\r\n    }\r\n\r\n    function ticketToOwner(uint ticketId) public view returns(address) {\r\n        return _ticketOwners[ticketId];\r\n    }\r\n\r\n    function ownerToTickets() public view returns(uint256[] memory){\r\n        uint i = 0;\r\n        uint j = 0;\r\n        uint256[] memory tempTicketIds = new uint256[](tickets.length);\r\n        for(i;i<tickets.length;i++){\r\n            if(_ticketOwners[i]==msg.sender){\r\n                tempTicketIds[j] = i;\r\n                j++;\r\n            }\r\n        }\r\n        uint256[] memory ticketIds = new uint256[](j);\r\n        for(i=0;i<j;i++){\r\n            ticketIds[i] = tempTicketIds[i];\r\n        }\r\n        return ticketIds;\r\n    }\r\n\r\n    function ownerToWinTickets() public view returns (uint256[] memory){\r\n        uint i = 0;\r\n        uint j = 0;\r\n        uint256[] memory tempTicketIds = new uint256[](tickets.length);\r\n        for(i;i<tickets.length;i++){\r\n            if(_ticketOwners[i]==msg.sender){\r\n                if(!tickets[i].used){\r\n                    if(ticketWinChip(i)>0){\r\n                        tempTicketIds[j] = i;\r\n                        j++;\r\n                    }\r\n                }\r\n            }\r\n        }\r\n        uint256[] memory ticketIds = new uint256[](j);\r\n        for(i=0;i<j;i++){\r\n            ticketIds[i] = tempTicketIds[i];\r\n        }\r\n        return ticketIds;\r\n    }\r\n\r\n    function roundToWinTickets(uint _roundId) public view returns (uint256[] memory){\r\n        uint i = 0;\r\n        uint j = 0;\r\n        uint256[] memory tempTicketIds = new uint256[](rounds[_roundId].ticketIds.length);\r\n        for(i;i<rounds[_roundId].ticketIds.length;i++){\r\n            if(!tickets[rounds[_roundId].ticketIds[i]].used){\r\n                if(ticketWinChip(rounds[_roundId].ticketIds[i])>0){\r\n                    tempTicketIds[j] = i;\r\n                    j++;\r\n                }\r\n            }\r\n        }\r\n        uint256[] memory ticketIds = new uint256[](j);\r\n        for(i=0;i<j;i++){\r\n            ticketIds[i] = tempTicketIds[i];\r\n        }\r\n        return ticketIds;\r\n    }\r\n\r\n    function ticketWinChip(uint256 ticketId) public view returns (uint256){\r\n        uint256 roundId = tickets[ticketId].roundId;\r\n        uint256 winChip;\r\n        winChip = checkResultInterface(rounds[roundId].resultContract).checkResult(ticketId);\r\n        return winChip;    \r\n    }\r\n\r\n    function roundToOwner(uint roundId) public view returns(address){\r\n        return _roundOwners[roundId];\r\n    }\r\n\r\n    function ownerToRounds() public view returns(uint256[] memory){\r\n        uint i = 0;\r\n        uint j = 0;\r\n        uint256[] memory tempRoundIds = new uint256[](rounds.length);\r\n        for(i;i<rounds.length;i++){\r\n            if(_roundOwners[i]==msg.sender){\r\n                tempRoundIds[j] = i;\r\n                j++;\r\n            }\r\n        }\r\n        uint256[] memory roundIds = new uint256[](j);\r\n        for(i=0;i<j;i++){\r\n            roundIds[i] = tempRoundIds[i];\r\n        }\r\n        return roundIds;\r\n    }\r\n\r\n    function _disableTicket(uint256 ticketId) private {\r\n        tickets[ticketId].used = true;\r\n    }\r\n\r\n    fallback () external payable{\r\n        buyToken();\r\n    }\r\n\r\n    receive() external payable {\r\n        buyToken();\r\n    }\r\n}\r\n",
  "sourcePath": "D:/cryptoZombie/dappReact/contracts/BoNhaCai.sol",
  "compiler": {
    "name": "solc",
    "version": "0.8.0+commit.c7dfd78e.Emscripten.clang"
  },
  "schemaVersion": "3.3.4",
  "updatedAt": "2021-04-17T18:17:41.136Z",
  "networkType": "ethereum",
  "devdoc": {
    "kind": "dev",
    "methods": {
      "allowance(address,address)": {
        "details": "See {IERC20-allowance}."
      },
      "approve(address,uint256)": {
        "details": "See {IERC20-approve}. Requirements: - `spender` cannot be the zero address."
      },
      "balanceOf(address)": {
        "details": "See {IERC20-balanceOf}."
      },
      "decimals()": {
        "details": "Returns the number of decimals used to get its user representation. For example, if `decimals` equals `2`, a balance of `505` tokens should be displayed to a user as `5,05` (`505 / 10 ** 2`). Tokens usually opt for a value of 18, imitating the relationship between Ether and Wei. This is the value {ERC20} uses, unless this function is overloaded; NOTE: This information is only used for _display_ purposes: it in no way affects any of the arithmetic of the contract, including {IERC20-balanceOf} and {IERC20-transfer}."
      },
      "decreaseAllowance(address,uint256)": {
        "details": "Atomically decreases the allowance granted to `spender` by the caller. This is an alternative to {approve} that can be used as a mitigation for problems described in {IERC20-approve}. Emits an {Approval} event indicating the updated allowance. Requirements: - `spender` cannot be the zero address. - `spender` must have allowance for the caller of at least `subtractedValue`."
      },
      "increaseAllowance(address,uint256)": {
        "details": "Atomically increases the allowance granted to `spender` by the caller. This is an alternative to {approve} that can be used as a mitigation for problems described in {IERC20-approve}. Emits an {Approval} event indicating the updated allowance. Requirements: - `spender` cannot be the zero address."
      },
      "name()": {
        "details": "Returns the name of the token."
      },
      "symbol()": {
        "details": "Returns the symbol of the token, usually a shorter version of the name."
      },
      "totalSupply()": {
        "details": "See {IERC20-totalSupply}."
      },
      "transfer(address,uint256)": {
        "details": "See {IERC20-transfer}. Requirements: - `recipient` cannot be the zero address. - the caller must have a balance of at least `amount`."
      },
      "transferFrom(address,address,uint256)": {
        "details": "See {IERC20-transferFrom}. Emits an {Approval} event indicating the updated allowance. This is not required by the EIP. See the note at the beginning of {ERC20}. Requirements: - `sender` and `recipient` cannot be the zero address. - `sender` must have a balance of at least `amount`. - the caller must have allowance for ``sender``'s tokens of at least `amount`."
      }
    },
    "version": 1
  },
  "userdoc": {
    "kind": "user",
    "methods": {},
    "version": 1
  }
}