{
  "contractName": "Roulette",
  "abi": [
    {
      "inputs": [
        {
          "internalType": "address",
          "name": "addr",
          "type": "address"
        }
      ],
      "stateMutability": "nonpayable",
      "type": "constructor"
    },
    {
      "anonymous": false,
      "inputs": [
        {
          "indexed": false,
          "internalType": "uint256",
          "name": "roundId",
          "type": "uint256"
        },
        {
          "indexed": false,
          "internalType": "uint256",
          "name": "value",
          "type": "uint256"
        }
      ],
      "name": "Result",
      "type": "event"
    },
    {
      "inputs": [
        {
          "internalType": "uint256",
          "name": "",
          "type": "uint256"
        }
      ],
      "name": "BLACK_NUMBERS",
      "outputs": [
        {
          "internalType": "uint8",
          "name": "",
          "type": "uint8"
        }
      ],
      "stateMutability": "view",
      "type": "function"
    },
    {
      "inputs": [],
      "name": "BoNhaCaiAddr",
      "outputs": [
        {
          "internalType": "address",
          "name": "",
          "type": "address"
        }
      ],
      "stateMutability": "view",
      "type": "function"
    },
    {
      "inputs": [
        {
          "internalType": "uint256",
          "name": "",
          "type": "uint256"
        }
      ],
      "name": "COLORS",
      "outputs": [
        {
          "internalType": "uint256",
          "name": "",
          "type": "uint256"
        }
      ],
      "stateMutability": "view",
      "type": "function"
    },
    {
      "inputs": [],
      "name": "NUM_POCKETS",
      "outputs": [
        {
          "internalType": "uint256",
          "name": "",
          "type": "uint256"
        }
      ],
      "stateMutability": "view",
      "type": "function"
    },
    {
      "inputs": [
        {
          "internalType": "uint256",
          "name": "",
          "type": "uint256"
        }
      ],
      "name": "RED_NUMBERS",
      "outputs": [
        {
          "internalType": "uint8",
          "name": "",
          "type": "uint8"
        }
      ],
      "stateMutability": "view",
      "type": "function"
    },
    {
      "inputs": [],
      "name": "TYPE_12",
      "outputs": [
        {
          "internalType": "uint256",
          "name": "",
          "type": "uint256"
        }
      ],
      "stateMutability": "view",
      "type": "function"
    },
    {
      "inputs": [],
      "name": "TYPE_18",
      "outputs": [
        {
          "internalType": "uint256",
          "name": "",
          "type": "uint256"
        }
      ],
      "stateMutability": "view",
      "type": "function"
    },
    {
      "inputs": [],
      "name": "TYPE_3_MODULO",
      "outputs": [
        {
          "internalType": "uint256",
          "name": "",
          "type": "uint256"
        }
      ],
      "stateMutability": "view",
      "type": "function"
    },
    {
      "inputs": [],
      "name": "TYPE_COLOR",
      "outputs": [
        {
          "internalType": "uint256",
          "name": "",
          "type": "uint256"
        }
      ],
      "stateMutability": "view",
      "type": "function"
    },
    {
      "inputs": [],
      "name": "TYPE_NUM",
      "outputs": [
        {
          "internalType": "uint256",
          "name": "",
          "type": "uint256"
        }
      ],
      "stateMutability": "view",
      "type": "function"
    },
    {
      "inputs": [],
      "name": "TYPE_ODD_EVEN",
      "outputs": [
        {
          "internalType": "uint256",
          "name": "",
          "type": "uint256"
        }
      ],
      "stateMutability": "view",
      "type": "function"
    },
    {
      "inputs": [
        {
          "internalType": "uint256",
          "name": "",
          "type": "uint256"
        }
      ],
      "name": "winners",
      "outputs": [
        {
          "internalType": "uint256",
          "name": "",
          "type": "uint256"
        }
      ],
      "stateMutability": "view",
      "type": "function"
    },
    {
      "inputs": [],
      "name": "Now",
      "outputs": [
        {
          "internalType": "uint256",
          "name": "",
          "type": "uint256"
        }
      ],
      "stateMutability": "view",
      "type": "function"
    },
    {
      "inputs": [
        {
          "internalType": "uint256",
          "name": "roundId",
          "type": "uint256"
        }
      ],
      "name": "drawWinner",
      "outputs": [],
      "stateMutability": "nonpayable",
      "type": "function"
    },
    {
      "inputs": [
        {
          "internalType": "uint256",
          "name": "ticketId",
          "type": "uint256"
        }
      ],
      "name": "checkResult",
      "outputs": [
        {
          "internalType": "uint256",
          "name": "",
          "type": "uint256"
        }
      ],
      "stateMutability": "view",
      "type": "function"
    },
    {
      "inputs": [
        {
          "internalType": "uint256",
          "name": "roundId",
          "type": "uint256"
        },
        {
          "internalType": "uint256",
          "name": "_data",
          "type": "uint256"
        },
        {
          "internalType": "uint256",
          "name": "_ticketPrice",
          "type": "uint256"
        }
      ],
      "name": "checkTicketBuy",
      "outputs": [
        {
          "internalType": "bool",
          "name": "",
          "type": "bool"
        }
      ],
      "stateMutability": "view",
      "type": "function"
    },
    {
      "inputs": [
        {
          "internalType": "uint256",
          "name": "data",
          "type": "uint256"
        }
      ],
      "name": "checkBetData",
      "outputs": [
        {
          "internalType": "bool",
          "name": "",
          "type": "bool"
        }
      ],
      "stateMutability": "pure",
      "type": "function"
    },
    {
      "inputs": [
        {
          "internalType": "uint256",
          "name": "data",
          "type": "uint256"
        }
      ],
      "name": "getBetType",
      "outputs": [
        {
          "internalType": "uint256",
          "name": "",
          "type": "uint256"
        }
      ],
      "stateMutability": "pure",
      "type": "function"
    },
    {
      "inputs": [
        {
          "internalType": "uint256",
          "name": "data",
          "type": "uint256"
        }
      ],
      "name": "getBetValue",
      "outputs": [
        {
          "internalType": "uint256",
          "name": "",
          "type": "uint256"
        }
      ],
      "stateMutability": "pure",
      "type": "function"
    },
    {
      "inputs": [
        {
          "internalType": "uint256",
          "name": "_data",
          "type": "uint256"
        },
        {
          "internalType": "uint256",
          "name": "_endTime",
          "type": "uint256"
        }
      ],
      "name": "checkRoundCreate",
      "outputs": [
        {
          "internalType": "bool",
          "name": "",
          "type": "bool"
        }
      ],
      "stateMutability": "view",
      "type": "function"
    }
  ],
  "bytecode": "0x6080604052604051806102400160405280600160ff168152602001600360ff168152602001600560ff168152602001600760ff168152602001600960ff168152602001600c60ff168152602001600e60ff168152602001601060ff168152602001601260ff168152602001601360ff168152602001601560ff168152602001601760ff168152602001601960ff168152602001601b60ff168152602001601e60ff168152602001602060ff168152602001602260ff168152602001602460ff168152506000906012620000d4929190620002f1565b50604051806102400160405280600260ff168152602001600460ff168152602001600660ff168152602001600860ff168152602001600a60ff168152602001600b60ff168152602001600d60ff168152602001600f60ff168152602001601160ff168152602001601460ff168152602001601660ff168152602001601860ff168152602001601a60ff168152602001601c60ff168152602001601d60ff168152602001601f60ff168152602001602160ff168152602001602360ff168152506001906012620001a5929190620002f1565b50348015620001b357600080fd5b5060405162001838380380620018388339818101604052810190620001d99190620003c8565b60005b6012811015620002675760016002600080846012811062000226577f4e487b7100000000000000000000000000000000000000000000000000000000600052603260045260246000fd5b602091828204019190069054906101000a900460ff1660ff1681526020019081526020016000208190555080806200025e9062000432565b915050620001dc565b5080600360006101000a81548173ffffffffffffffffffffffffffffffffffffffff021916908373ffffffffffffffffffffffffffffffffffffffff16021790555080600460006101000a81548173ffffffffffffffffffffffffffffffffffffffff021916908373ffffffffffffffffffffffffffffffffffffffff16021790555050620004c9565b826012601f016020900481019282156200037f5791602002820160005b838211156200034e57835183826101000a81548160ff021916908360ff16021790555092602001926001016020816000010492830192600103026200030e565b80156200037d5782816101000a81549060ff02191690556001016020816000010492830192600103026200034e565b505b5090506200038e919062000392565b5090565b5b80821115620003ad57600081600090555060010162000393565b5090565b600081519050620003c281620004af565b92915050565b600060208284031215620003db57600080fd5b6000620003eb84828501620003b1565b91505092915050565b6000620004018262000408565b9050919050565b600073ffffffffffffffffffffffffffffffffffffffff82169050919050565b6000819050919050565b60006200043f8262000428565b91507fffffffffffffffffffffffffffffffffffffffffffffffffffffffffffffffff82141562000475576200047462000480565b5b600182019050919050565b7f4e487b7100000000000000000000000000000000000000000000000000000000600052601160045260246000fd5b620004ba81620003f4565b8114620004c657600080fd5b50565b61135f80620004d96000396000f3fe608060405234801561001057600080fd5b506004361061012c5760003560e01c80638fc42f09116100ad578063a713100d11610071578063a713100d1461035d578063b203384a1461038d578063b369bbc2146103bd578063dc583670146103ed578063e9f9d28b1461040b5761012c565b80638fc42f091461029157806390b7e43a146102af57806398ebcde9146102cd578063a2c9cbb1146102fd578063a2fb11751461032d5761012c565b80634b7ae67c116100f45780634b7ae67c146101d95780635a29c92c146101f757806360b2a56a1461022757806377efa2b514610243578063857a6f5b146102615761012c565b8063287c58b61461013157806329607a231461014f5780633f5e7e591461017f57806344d4fd191461019d5780634b2fd52e146101bb575b600080fd5b61013961043b565b6040516101469190610ff6565b60405180910390f35b61016960048036038101906101649190610dc8565b610440565b604051610176919061103a565b60405180910390f35b61018761046a565b6040516101949190610ff6565b60405180910390f35b6101a561046f565b6040516101b29190610ff6565b60405180910390f35b6101c3610477565b6040516101d09190610ff6565b60405180910390f35b6101e161047c565b6040516101ee9190610ff6565b60405180910390f35b610211600480360381019061020c9190610dc8565b610481565b60405161021e9190610ff6565b60405180910390f35b610241600480360381019061023c9190610dc8565b610496565b005b61024b61063b565b6040516102589190610fa5565b60405180910390f35b61027b60048036038101906102769190610dc8565b610661565b6040516102889190610ff6565b60405180910390f35b610299610679565b6040516102a69190610ff6565b60405180910390f35b6102b761067e565b6040516102c49190610ff6565b60405180910390f35b6102e760048036038101906102e29190610dc8565b610683565b6040516102f4919061103a565b60405180910390f35b61031760048036038101906103129190610dc8565b6106ad565b6040516103249190610fc0565b60405180910390f35b61034760048036038101906103429190610dc8565b610812565b6040516103549190610ff6565b60405180910390f35b61037760048036038101906103729190610df1565b61082a565b6040516103849190610fc0565b60405180910390f35b6103a760048036038101906103a29190610ea8565b610848565b6040516103b49190610fc0565b60405180910390f35b6103d760048036038101906103d29190610dc8565b610965565b6040516103e49190610ff6565b60405180910390f35b6103f5610976565b6040516104029190610ff6565b60405180910390f35b61042560048036038101906104209190610dc8565b61097b565b6040516104329190610ff6565b60405180910390f35b600081565b6000816012811061045057600080fd5b60209182820401919006915054906101000a900460ff1681565b600381565b600042905090565b602581565b600181565b600060c080604084901c901b901c9050919050565b60006005600083815260200190815260200160002054146104b657600080fd5b60606000806000600460009054906101000a900473ffffffffffffffffffffffffffffffffffffffff1673ffffffffffffffffffffffffffffffffffffffff16638f1327c0866040518263ffffffff1660e01b81526004016105189190610ff6565b60006040518083038186803b15801561053057600080fd5b505afa158015610544573d6000803e3d6000fd5b505050506040513d6000823e3d601f19601f8201168201806040525081019061056d9190610e2d565b8097508194508295508396505050505081421161058957600080fd5b60006001436105989190611193565b406040516020016105a99190610fdb565b6040516020818303038152906040528051906020012090506000600160258360001c6105d59190611226565b6105df91906110b2565b90508060056000898152602001908152602001600020819055507f34fa627446f032cedc60a5521c4a8fbdd28f3ce106d8c6f6c17322ada873cebb878260405161062a929190611011565b60405180910390a150505050505050565b600360009054906101000a900473ffffffffffffffffffffffffffffffffffffffff1681565b60026020528060005260406000206000915090505481565b600281565b600481565b6001816012811061069357600080fd5b60209182820401919006915054906101000a900460ff1681565b6000806106b983610965565b905060006106c684610481565b905060008214156106fd57600081101580156106e25750602581105b156106f25760019250505061080d565b60009250505061080d565b600382141561073257600081101580156107175750600381105b156107275760019250505061080d565b60009250505061080d565b6004821415610767576000811015801561074c5750600281105b1561075c5760019250505061080d565b60009250505061080d565b600582141561079c57600081101580156107815750600381105b156107915760019250505061080d565b60009250505061080d565b60018214156107d157600081101580156107b65750600281105b156107c65760019250505061080d565b60009250505061080d565b600282141561080657600081101580156107eb5750600281105b156107fb5760019250505061080d565b60009250505061080d565b6000925050505b919050565b60056020528060005260406000206000915090505481565b60004282111561083d5760019050610842565b600090505b92915050565b6000806000600460009054906101000a900473ffffffffffffffffffffffffffffffffffffffff1673ffffffffffffffffffffffffffffffffffffffff16638f1327c0876040518263ffffffff1660e01b81526004016108a89190610ff6565b60006040518083038186803b1580156108c057600080fd5b505afa1580156108d4573d6000803e3d6000fd5b505050506040513d6000823e3d601f19601f820116820180604052508101906108fd9190610e2d565b9050508092508193505050428111801561092a575060006005600088815260200190815260200160002054145b801561093b575061093a856106ad565b5b80156109475750818411155b156109575760019250505061095e565b6000925050505b9392505050565b600060c08083901b901c9050919050565b600581565b6000806000806000600460009054906101000a900473ffffffffffffffffffffffffffffffffffffffff1673ffffffffffffffffffffffffffffffffffffffff16637dc379fa876040518263ffffffff1660e01b81526004016109de9190610ff6565b60806040518083038186803b1580156109f657600080fd5b505afa158015610a0a573d6000803e3d6000fd5b505050506040513d601f19601f82011682018060405250810190610a2e9190610ef7565b80945081955082965083975050505050600060056000848152602001908152602001600020541415610a67576000945050505050610cd9565b600060016005600085815260200190815260200160002054610a899190611193565b90506000610a9686610965565b90506000610aa387610481565b90506000821415610ae15782811415610ad157602486610ac39190611139565b975050505050505050610cd9565b6000975050505050505050610cd9565b6003821415610b42576000831415610b03576000975050505050505050610cd9565b600c83610b109190611108565b811415610b3257600386610b249190611139565b975050505050505050610cd9565b6000975050505050505050610cd9565b6004821415610ba3576000831415610b64576000975050505050505050610cd9565b601283610b719190611108565b811415610b9357600286610b859190611139565b975050505050505050610cd9565b6000975050505050505050610cd9565b6005821415610c04576000831415610bc5576000975050505050505050610cd9565b600383610bd29190611226565b811415610bf457600386610be69190611139565b975050505050505050610cd9565b6000975050505050505050610cd9565b6001821415610c6c576000831415610c26576000975050505050505050610cd9565b6002600084815260200190815260200160002054811415610c5c57600286610c4e9190611139565b975050505050505050610cd9565b6000975050505050505050610cd9565b6002821415610ccd576000831415610c8e576000975050505050505050610cd9565b600283610c9b9190611226565b811415610cbd57600286610caf9190611139565b975050505050505050610cd9565b6000975050505050505050610cd9565b60009750505050505050505b919050565b6000610cf1610cec84611086565b611055565b90508083825260208201905082856020860282011115610d1057600080fd5b60005b85811015610d405781610d268882610db3565b845260208401935060208301925050600181019050610d13565b5050509392505050565b600081519050610d59816112e4565b92915050565b600082601f830112610d7057600080fd5b8151610d80848260208601610cde565b91505092915050565b600081519050610d98816112fb565b92915050565b600081359050610dad81611312565b92915050565b600081519050610dc281611312565b92915050565b600060208284031215610dda57600080fd5b6000610de884828501610d9e565b91505092915050565b60008060408385031215610e0457600080fd5b6000610e1285828601610d9e565b9250506020610e2385828601610d9e565b9150509250929050565b60008060008060808587031215610e4357600080fd5b6000610e5187828801610db3565b9450506020610e6287828801610db3565b9350506040610e7387828801610d4a565b925050606085015167ffffffffffffffff811115610e9057600080fd5b610e9c87828801610d5f565b91505092959194509250565b600080600060608486031215610ebd57600080fd5b6000610ecb86828701610d9e565b9350506020610edc86828701610d9e565b9250506040610eed86828701610d9e565b9150509250925092565b60008060008060808587031215610f0d57600080fd5b6000610f1b87828801610db3565b9450506020610f2c87828801610db3565b9350506040610f3d87828801610db3565b9250506060610f4e87828801610d89565b91505092959194509250565b610f63816111c7565b82525050565b610f72816111d9565b82525050565b610f81816111e5565b82525050565b610f908161120f565b82525050565b610f9f81611219565b82525050565b6000602082019050610fba6000830184610f5a565b92915050565b6000602082019050610fd56000830184610f69565b92915050565b6000602082019050610ff06000830184610f78565b92915050565b600060208201905061100b6000830184610f87565b92915050565b60006040820190506110266000830185610f87565b6110336020830184610f87565b9392505050565b600060208201905061104f6000830184610f96565b92915050565b6000604051905081810181811067ffffffffffffffff8211171561107c5761107b6112b5565b5b8060405250919050565b600067ffffffffffffffff8211156110a1576110a06112b5565b5b602082029050602081019050919050565b60006110bd8261120f565b91506110c88361120f565b9250827fffffffffffffffffffffffffffffffffffffffffffffffffffffffffffffffff038211156110fd576110fc611257565b5b828201905092915050565b60006111138261120f565b915061111e8361120f565b92508261112e5761112d611286565b5b828204905092915050565b60006111448261120f565b915061114f8361120f565b9250817fffffffffffffffffffffffffffffffffffffffffffffffffffffffffffffffff048311821515161561118857611187611257565b5b828202905092915050565b600061119e8261120f565b91506111a98361120f565b9250828210156111bc576111bb611257565b5b828203905092915050565b60006111d2826111ef565b9050919050565b60008115159050919050565b6000819050919050565b600073ffffffffffffffffffffffffffffffffffffffff82169050919050565b6000819050919050565b600060ff82169050919050565b60006112318261120f565b915061123c8361120f565b92508261124c5761124b611286565b5b828206905092915050565b7f4e487b7100000000000000000000000000000000000000000000000000000000600052601160045260246000fd5b7f4e487b7100000000000000000000000000000000000000000000000000000000600052601260045260246000fd5b7f4e487b7100000000000000000000000000000000000000000000000000000000600052604160045260246000fd5b6112ed816111c7565b81146112f857600080fd5b50565b611304816111d9565b811461130f57600080fd5b50565b61131b8161120f565b811461132657600080fd5b5056fea26469706673582212207cdfa30b93cca00da497a73308b1e63751d340372f68e6cacbd83f82d8abe77964736f6c63430008000033",
  "immutableReferences": {},
  "source": "// SPDX-License-Identifier: MIT\r\npragma solidity ^0.8.0;\r\n\r\nimport \"./BoNhaCai.sol\";\r\n\r\ncontract Roulette {\r\n    uint256 public constant TYPE_NUM = 0;\r\n\r\n    uint256 public constant TYPE_COLOR = 1;\r\n\r\n    uint256 public constant TYPE_ODD_EVEN = 2;\r\n\r\n    uint256 public constant TYPE_12 = 3;\r\n\r\n    uint256 public constant TYPE_18 = 4;\r\n\r\n    uint256 public constant TYPE_3_MODULO = 5;\r\n\r\n    uint256 public constant NUM_POCKETS = 37;\r\n\r\n    uint8[18] public RED_NUMBERS = [\r\n        1,\r\n        3,\r\n        5,\r\n        7,\r\n        9,\r\n        12,\r\n        14,\r\n        16,\r\n        18,\r\n        19,\r\n        21,\r\n        23,\r\n        25,\r\n        27,\r\n        30,\r\n        32,\r\n        34,\r\n        36\r\n    ];\r\n    uint8[18] public BLACK_NUMBERS = [\r\n        2,\r\n        4,\r\n        6,\r\n        8,\r\n        10,\r\n        11,\r\n        13,\r\n        15,\r\n        17,\r\n        20,\r\n        22,\r\n        24,\r\n        26,\r\n        28,\r\n        29,\r\n        31,\r\n        33,\r\n        35\r\n    ];\r\n    // maps wheel numbers to colors\r\n    mapping(uint256 => uint256) public COLORS;\r\n\r\n    address public BoNhaCaiAddr;\r\n    BoNhaCai boNhaCai;\r\n\r\n    event Result(uint roundId, uint value);\r\n\r\n    mapping(uint256 => uint256) public winners;\r\n\r\n    constructor(address addr) {\r\n        for (uint256 i = 0; i < 18; i++) {\r\n            COLORS[RED_NUMBERS[i]] = 1;\r\n        }\r\n        BoNhaCaiAddr = addr;\r\n        boNhaCai = BoNhaCai(payable(addr));\r\n    }\r\n\r\n    function Now() public view returns (uint256) {\r\n        return block.timestamp;\r\n    }\r\n\r\n    function drawWinner(uint256 roundId) public {\r\n        require(winners[roundId] == 0);\r\n        uint256[] memory ticketIds;\r\n        uint256 data;\r\n        uint256 endTime;\r\n        address resultContract;\r\n        (data, endTime, resultContract, ticketIds) = boNhaCai.getRound(roundId);\r\n\r\n        require(block.timestamp > endTime);\r\n\r\n        bytes32 rand = keccak256(abi.encode(blockhash(block.number - 1)));\r\n        uint result = (uint256(rand) % NUM_POCKETS) + 1;\r\n        winners[roundId] = result;\r\n        emit Result(roundId, result);\r\n\r\n    }\r\n\r\n    function checkResult(uint256 ticketId)\r\n        external\r\n        view\r\n        virtual\r\n        returns (uint256)\r\n    {\r\n        uint256 data;\r\n        uint256 ticketPrice;\r\n        uint256 roundId;\r\n        bool used;\r\n        (data, ticketPrice, roundId, used) = boNhaCai.getTicket(ticketId);\r\n        if (winners[roundId] == 0) return 0;\r\n        uint256 landed = winners[roundId] - 1;\r\n\r\n        uint256 betType = getBetType(data);\r\n        uint256 betValue = getBetValue(data);\r\n        if (betType == TYPE_NUM) {\r\n            if (betValue == landed) {\r\n                return ticketPrice * 36;\r\n            } else return 0;\r\n        } else if (betType == TYPE_12) {\r\n            if (landed == 0) return 0;\r\n            else if (betValue == landed / 12) {\r\n                return ticketPrice * 3;\r\n            } else return 0;\r\n        } else if (betType == TYPE_18) {\r\n            if (landed == 0) return 0;\r\n            else if (betValue == landed / 18) {\r\n                return ticketPrice * 2;\r\n            } else return 0;\r\n        } else if (betType == TYPE_3_MODULO) {\r\n            if (landed == 0) return 0;\r\n            else if (betValue == landed % 3) {\r\n                return ticketPrice * 3;\r\n            } else return 0;\r\n        } else if (betType == TYPE_COLOR) {\r\n            if (landed == 0) return 0;\r\n            else if (betValue == COLORS[landed]) {\r\n                return ticketPrice * 2;\r\n            } else return 0;\r\n        } else if (betType == TYPE_ODD_EVEN) {\r\n            if (landed == 0) return 0;\r\n            else if (betValue == landed % 2) {\r\n                return ticketPrice * 2;\r\n            } else return 0;\r\n        } else {\r\n            return 0;\r\n        }\r\n    }\r\n\r\n    function checkTicketBuy(\r\n        uint256 roundId,\r\n        uint256 _data,\r\n        uint256 _ticketPrice\r\n    ) public view virtual returns (bool) {\r\n        uint256 data;\r\n        uint256 endTime;\r\n        (data, endTime, , ) = boNhaCai.getRound(roundId);\r\n        if (\r\n            (endTime > block.timestamp) &&\r\n            (winners[roundId] == 0) &&\r\n            checkBetData(_data) &&\r\n            (_ticketPrice <= data)\r\n        ) return true;\r\n        else return false;\r\n    }\r\n\r\n    function checkBetData(uint256 data) public pure returns (bool) {\r\n        uint256 betType = getBetType(data);\r\n        uint256 betValue = getBetValue(data);\r\n        if (betType == TYPE_NUM) {\r\n            if (betValue >= 0 && betValue < 37) {\r\n                return true;\r\n            } else return false;\r\n        } else if (betType == TYPE_12) {\r\n            if (betValue >= 0 && betValue < 3) {\r\n                return true;\r\n            } else return false;\r\n        } else if (betType == TYPE_18) {\r\n            if (betValue >= 0 && betValue < 2) {\r\n                return true;\r\n            } else return false;\r\n        } else if (betType == TYPE_3_MODULO) {\r\n            if (betValue >= 0 && betValue < 3) {\r\n                return true;\r\n            } else return false;\r\n        } else if (betType == TYPE_COLOR) {\r\n            if (betValue >= 0 && betValue < 2) {\r\n                return true;\r\n            } else return false;\r\n        } else if (betType == TYPE_ODD_EVEN) {\r\n            if (betValue >= 0 && betValue < 2) {\r\n                return true;\r\n            } else return false;\r\n        } else {\r\n            return false;\r\n        }\r\n    }\r\n\r\n    function getBetType(uint256 data) public pure returns (uint256) {\r\n        return (data << 192) >> 192;\r\n    }\r\n\r\n    function getBetValue(uint256 data) public pure returns (uint256) {\r\n        return ((data >> 64) << 192) >> 192;\r\n    }\r\n\r\n    function checkRoundCreate(uint256 _data, uint256 _endTime)\r\n        public\r\n        view\r\n        virtual\r\n        returns (bool)\r\n    {\r\n        if (_endTime > block.timestamp) return true;\r\n        else return false;\r\n    }\r\n}\r\n",
  "sourcePath": "D:/cryptoZombie/dappReact/contracts/Roulette.sol",
  "compiler": {
    "name": "solc",
    "version": "0.8.0+commit.c7dfd78e.Emscripten.clang"
  },
  "schemaVersion": "3.3.4",
  "updatedAt": "2021-04-17T15:29:08.524Z",
  "devdoc": {
    "kind": "dev",
    "methods": {},
    "version": 1
  },
  "userdoc": {
    "kind": "user",
    "methods": {},
    "version": 1
  }
}