{
  "contractName": "SimpleLottery",
  "abi": [
    {
      "inputs": [
        {
          "internalType": "address",
          "name": "addr",
          "type": "address"
        }
      ],
      "stateMutability": "nonpayable",
      "type": "constructor"
    },
    {
      "inputs": [],
      "name": "BoNhaCaiAddr",
      "outputs": [
        {
          "internalType": "address",
          "name": "",
          "type": "address"
        }
      ],
      "stateMutability": "view",
      "type": "function",
      "constant": true
    },
    {
      "inputs": [
        {
          "internalType": "uint256",
          "name": "",
          "type": "uint256"
        }
      ],
      "name": "winners",
      "outputs": [
        {
          "internalType": "uint256",
          "name": "",
          "type": "uint256"
        }
      ],
      "stateMutability": "view",
      "type": "function",
      "constant": true
    },
    {
      "inputs": [],
      "name": "Now",
      "outputs": [
        {
          "internalType": "uint256",
          "name": "",
          "type": "uint256"
        }
      ],
      "stateMutability": "view",
      "type": "function",
      "constant": true
    },
    {
      "inputs": [
        {
          "internalType": "uint256",
          "name": "roundId",
          "type": "uint256"
        }
      ],
      "name": "drawWinner",
      "outputs": [],
      "stateMutability": "nonpayable",
      "type": "function"
    },
    {
      "inputs": [
        {
          "internalType": "uint256",
          "name": "ticketId",
          "type": "uint256"
        }
      ],
      "name": "checkResult",
      "outputs": [
        {
          "internalType": "uint256",
          "name": "",
          "type": "uint256"
        }
      ],
      "stateMutability": "view",
      "type": "function",
      "constant": true
    },
    {
      "inputs": [
        {
          "internalType": "uint256",
          "name": "roundId",
          "type": "uint256"
        },
        {
          "internalType": "uint256",
          "name": "_data",
          "type": "uint256"
        }
      ],
      "name": "checkTicketBuy",
      "outputs": [
        {
          "internalType": "bool",
          "name": "",
          "type": "bool"
        }
      ],
      "stateMutability": "view",
      "type": "function",
      "constant": true
    },
    {
      "inputs": [
        {
          "internalType": "uint256",
          "name": "_data",
          "type": "uint256"
        },
        {
          "internalType": "uint256",
          "name": "_endTime",
          "type": "uint256"
        }
      ],
      "name": "checkRoundCreate",
      "outputs": [
        {
          "internalType": "bool",
          "name": "",
          "type": "bool"
        }
      ],
      "stateMutability": "view",
      "type": "function",
      "constant": true
    }
  ],
  "bytecode": "0x608060405234801561001057600080fd5b50604051610d73380380610d73833981810160405281019061003291906100ce565b806000806101000a81548173ffffffffffffffffffffffffffffffffffffffff021916908373ffffffffffffffffffffffffffffffffffffffff16021790555080600160006101000a81548173ffffffffffffffffffffffffffffffffffffffff021916908373ffffffffffffffffffffffffffffffffffffffff16021790555050610140565b6000815190506100c881610129565b92915050565b6000602082840312156100e057600080fd5b60006100ee848285016100b9565b91505092915050565b600061010282610109565b9050919050565b600073ffffffffffffffffffffffffffffffffffffffff82169050919050565b610132816100f7565b811461013d57600080fd5b50565b610c248061014f6000396000f3fe608060405234801561001057600080fd5b506004361061007d5760003560e01c8063a2fb11751161005b578063a2fb1175146100da578063a713100d1461010a578063d6b2bbf41461013a578063e9f9d28b1461016a5761007d565b806344d4fd191461008257806360b2a56a146100a057806377efa2b5146100bc575b600080fd5b61008a61019a565b6040516100979190610986565b60405180910390f35b6100ba60048036038101906100b5919061072d565b6101a2565b005b6100c4610308565b6040516100d19190610915565b60405180910390f35b6100f460048036038101906100ef919061072d565b61032c565b6040516101019190610986565b60405180910390f35b610124600480360381019061011f919061077f565b610344565b6040516101319190610930565b60405180910390f35b610154600480360381019061014f919061077f565b610392565b6040516101619190610930565b60405180910390f35b610184600480360381019061017f919061072d565b610495565b6040516101919190610986565b60405180910390f35b600042905090565b60006002600083815260200190815260200160002054146101c257600080fd5b60606000806000600160009054906101000a900473ffffffffffffffffffffffffffffffffffffffff1673ffffffffffffffffffffffffffffffffffffffff16638f1327c0866040518263ffffffff1660e01b81526004016102249190610986565b60006040518083038186803b15801561023c57600080fd5b505afa158015610250573d6000803e3d6000fd5b505050506040513d6000823e3d601f19601f8201168201806040525081019061027991906107bb565b8097508194508295508396505050505081421161029557600080fd5b60006001436102a49190610a65565b406040516020016102b5919061094b565b604051602081830303815290604052805190602001209050600185518260001c6102df9190610aeb565b6102e99190610a0f565b6002600088815260200190815260200160002081905550505050505050565b60008054906101000a900473ffffffffffffffffffffffffffffffffffffffff1681565b60026020528060005260406000206000915090505481565b6000428211610388576040517f08c379a000000000000000000000000000000000000000000000000000000000815260040161037f90610966565b60405180910390fd5b6001905092915050565b600060606000806000600160009054906101000a900473ffffffffffffffffffffffffffffffffffffffff1673ffffffffffffffffffffffffffffffffffffffff16638f1327c0886040518263ffffffff1660e01b81526004016103f69190610986565b60006040518083038186803b15801561040e57600080fd5b505afa158015610422573d6000803e3d6000fd5b505050506040513d6000823e3d601f19601f8201168201806040525081019061044b91906107bb565b8097508194508295508396505050505042821161046757600080fd5b600060026000898152602001908152602001600020541461048757600080fd5b600194505050505092915050565b6000806000806000600160009054906101000a900473ffffffffffffffffffffffffffffffffffffffff1673ffffffffffffffffffffffffffffffffffffffff16637dc379fa876040518263ffffffff1660e01b81526004016104f89190610986565b60806040518083038186803b15801561051057600080fd5b505afa158015610524573d6000803e3d6000fd5b505050506040513d601f19601f820116820180604052508101906105489190610836565b80945081955082965083975050505050600160026000848152602001908152602001600020546105789190610a65565b86141561063557600160009054906101000a900473ffffffffffffffffffffffffffffffffffffffff1673ffffffffffffffffffffffffffffffffffffffff166327f64634836040518263ffffffff1660e01b81526004016105da9190610986565b60206040518083038186803b1580156105f257600080fd5b505afa158015610606573d6000803e3d6000fd5b505050506040513d601f19601f8201168201806040525081019061062a9190610756565b94505050505061063e565b60009450505050505b919050565b6000610656610651846109d2565b6109a1565b9050808382526020820190508285602086028201111561067557600080fd5b60005b858110156106a5578161068b8882610718565b845260208401935060208301925050600181019050610678565b5050509392505050565b6000815190506106be81610ba9565b92915050565b600082601f8301126106d557600080fd5b81516106e5848260208601610643565b91505092915050565b6000815190506106fd81610bc0565b92915050565b60008135905061071281610bd7565b92915050565b60008151905061072781610bd7565b92915050565b60006020828403121561073f57600080fd5b600061074d84828501610703565b91505092915050565b60006020828403121561076857600080fd5b600061077684828501610718565b91505092915050565b6000806040838503121561079257600080fd5b60006107a085828601610703565b92505060206107b185828601610703565b9150509250929050565b600080600080608085870312156107d157600080fd5b60006107df87828801610718565b94505060206107f087828801610718565b9350506040610801878288016106af565b925050606085015167ffffffffffffffff81111561081e57600080fd5b61082a878288016106c4565b91505092959194509250565b6000806000806080858703121561084c57600080fd5b600061085a87828801610718565b945050602061086b87828801610718565b935050604061087c87828801610718565b925050606061088d878288016106ee565b91505092959194509250565b6108a281610a99565b82525050565b6108b181610aab565b82525050565b6108c081610ab7565b82525050565b60006108d36003836109fe565b91507f6e677500000000000000000000000000000000000000000000000000000000006000830152602082019050919050565b61090f81610ae1565b82525050565b600060208201905061092a6000830184610899565b92915050565b600060208201905061094560008301846108a8565b92915050565b600060208201905061096060008301846108b7565b92915050565b6000602082019050818103600083015261097f816108c6565b9050919050565b600060208201905061099b6000830184610906565b92915050565b6000604051905081810181811067ffffffffffffffff821117156109c8576109c7610b7a565b5b8060405250919050565b600067ffffffffffffffff8211156109ed576109ec610b7a565b5b602082029050602081019050919050565b600082825260208201905092915050565b6000610a1a82610ae1565b9150610a2583610ae1565b9250827fffffffffffffffffffffffffffffffffffffffffffffffffffffffffffffffff03821115610a5a57610a59610b1c565b5b828201905092915050565b6000610a7082610ae1565b9150610a7b83610ae1565b925082821015610a8e57610a8d610b1c565b5b828203905092915050565b6000610aa482610ac1565b9050919050565b60008115159050919050565b6000819050919050565b600073ffffffffffffffffffffffffffffffffffffffff82169050919050565b6000819050919050565b6000610af682610ae1565b9150610b0183610ae1565b925082610b1157610b10610b4b565b5b828206905092915050565b7f4e487b7100000000000000000000000000000000000000000000000000000000600052601160045260246000fd5b7f4e487b7100000000000000000000000000000000000000000000000000000000600052601260045260246000fd5b7f4e487b7100000000000000000000000000000000000000000000000000000000600052604160045260246000fd5b610bb281610a99565b8114610bbd57600080fd5b50565b610bc981610aab565b8114610bd457600080fd5b50565b610be081610ae1565b8114610beb57600080fd5b5056fea26469706673582212205c4bf8d655f1bf09be20fac856745d745a86327b2c7793b8fbeb5952eea5129a64736f6c63430008000033",
  "immutableReferences": {},
  "source": "// SPDX-License-Identifier: MIT\r\npragma solidity ^0.8.0;\r\n\r\nimport \"./BoNhaCai.sol\";\r\n\r\ncontract SimpleLottery {\r\n    address public BoNhaCaiAddr;\r\n    BoNhaCai boNhaCai;\r\n\r\n    mapping(uint=>uint) public winners;\r\n\r\n    constructor (address addr) {\r\n        BoNhaCaiAddr = addr;\r\n        boNhaCai = BoNhaCai(payable(addr));\r\n    }\r\n    function Now() public view returns(uint256){\r\n        return block.timestamp;\r\n    }\r\n\r\n    function drawWinner (uint roundId) public {\r\n        require(winners[roundId]==0);\r\n        uint256[] memory ticketIds;\r\n        uint256 data;\r\n        uint256 endTime;\r\n        address resultContract; \r\n        (data,endTime,resultContract,ticketIds) = boNhaCai.getRound(roundId);\r\n\r\n        require(block.timestamp > endTime);\r\n\r\n        bytes32 rand = keccak256(abi.encode(blockhash(block.number-1)));\r\n        winners[roundId] = uint(rand) % ticketIds.length + 1;\r\n    }\r\n\r\n    function checkResult(uint ticketId) external view virtual returns (uint256){\r\n        uint256 data;\r\n        uint256 ticketPrice;\r\n        uint256 roundId;\r\n        bool used;\r\n        (data, ticketPrice, roundId, used) = boNhaCai.getTicket(ticketId);\r\n        if(ticketId == winners[roundId]-1){\r\n            return boNhaCai.balanceOfRound(roundId);\r\n        }\r\n        else {\r\n            return 0;\r\n        }\r\n    }\r\n\r\n    function checkTicketBuy(uint roundId, uint256 _data) public view virtual returns (bool){\r\n        uint256[] memory ticketIds;\r\n        uint256 data;\r\n        uint256 endTime;\r\n        address resultContract; \r\n        (data,endTime,resultContract,ticketIds) = boNhaCai.getRound(roundId);\r\n        require(endTime > block.timestamp);\r\n        require(winners[roundId]==0);\r\n        return true;\r\n    }\r\n\r\n    function checkRoundCreate(uint _data, uint256 _endTime) public view virtual returns (bool){\r\n        require(_endTime>block.timestamp, \"ngu\");\r\n        return true;\r\n    }\r\n}",
  "sourcePath": "D:/cryptoZombie/dappReact/contracts/SimpleLottery.sol",
  "compiler": {
    "name": "solc",
    "version": "0.8.0+commit.c7dfd78e.Emscripten.clang"
  },
  "schemaVersion": "3.3.4",
  "updatedAt": "2021-04-15T03:23:16.660Z",
  "networkType": "ethereum",
  "devdoc": {
    "kind": "dev",
    "methods": {},
    "version": 1
  },
  "userdoc": {
    "kind": "user",
    "methods": {},
    "version": 1
  }
}