{
  "contractName": "SimpleLottery",
  "abi": [
    {
      "inputs": [
        {
          "internalType": "address",
          "name": "addr",
          "type": "address"
        }
      ],
      "stateMutability": "nonpayable",
      "type": "constructor"
    },
    {
      "anonymous": false,
      "inputs": [
        {
          "indexed": false,
          "internalType": "uint256",
          "name": "roundId",
          "type": "uint256"
        },
        {
          "indexed": false,
          "internalType": "uint256",
          "name": "value",
          "type": "uint256"
        }
      ],
      "name": "Result",
      "type": "event"
    },
    {
      "inputs": [],
      "name": "BoNhaCaiAddr",
      "outputs": [
        {
          "internalType": "address",
          "name": "",
          "type": "address"
        }
      ],
      "stateMutability": "view",
      "type": "function",
      "constant": true
    },
    {
      "inputs": [
        {
          "internalType": "uint256",
          "name": "",
          "type": "uint256"
        }
      ],
      "name": "winners",
      "outputs": [
        {
          "internalType": "uint256",
          "name": "",
          "type": "uint256"
        }
      ],
      "stateMutability": "view",
      "type": "function",
      "constant": true
    },
    {
      "inputs": [],
      "name": "Now",
      "outputs": [
        {
          "internalType": "uint256",
          "name": "",
          "type": "uint256"
        }
      ],
      "stateMutability": "view",
      "type": "function",
      "constant": true
    },
    {
      "inputs": [
        {
          "internalType": "uint256",
          "name": "roundId",
          "type": "uint256"
        }
      ],
      "name": "drawWinner",
      "outputs": [],
      "stateMutability": "nonpayable",
      "type": "function"
    },
    {
      "inputs": [
        {
          "internalType": "uint256",
          "name": "ticketId",
          "type": "uint256"
        }
      ],
      "name": "checkResult",
      "outputs": [
        {
          "internalType": "uint256",
          "name": "",
          "type": "uint256"
        }
      ],
      "stateMutability": "view",
      "type": "function",
      "constant": true
    },
    {
      "inputs": [
        {
          "internalType": "uint256",
          "name": "roundId",
          "type": "uint256"
        },
        {
          "internalType": "uint256",
          "name": "_data",
          "type": "uint256"
        },
        {
          "internalType": "uint256",
          "name": "_ticketPrice",
          "type": "uint256"
        }
      ],
      "name": "checkTicketBuy",
      "outputs": [
        {
          "internalType": "bool",
          "name": "",
          "type": "bool"
        }
      ],
      "stateMutability": "view",
      "type": "function",
      "constant": true
    },
    {
      "inputs": [
        {
          "internalType": "uint256",
          "name": "_data",
          "type": "uint256"
        },
        {
          "internalType": "uint256",
          "name": "_endTime",
          "type": "uint256"
        }
      ],
      "name": "checkRoundCreate",
      "outputs": [
        {
          "internalType": "bool",
          "name": "",
          "type": "bool"
        }
      ],
      "stateMutability": "view",
      "type": "function",
      "constant": true
    }
  ],
  "bytecode": "0x608060405234801561001057600080fd5b50604051610d91380380610d91833981810160405281019061003291906100ce565b806000806101000a81548173ffffffffffffffffffffffffffffffffffffffff021916908373ffffffffffffffffffffffffffffffffffffffff16021790555080600160006101000a81548173ffffffffffffffffffffffffffffffffffffffff021916908373ffffffffffffffffffffffffffffffffffffffff16021790555050610140565b6000815190506100c881610129565b92915050565b6000602082840312156100e057600080fd5b60006100ee848285016100b9565b91505092915050565b600061010282610109565b9050919050565b600073ffffffffffffffffffffffffffffffffffffffff82169050919050565b610132816100f7565b811461013d57600080fd5b50565b610c428061014f6000396000f3fe608060405234801561001057600080fd5b506004361061007d5760003560e01c8063a2fb11751161005b578063a2fb1175146100da578063a713100d1461010a578063b203384a1461013a578063e9f9d28b1461016a5761007d565b806344d4fd191461008257806360b2a56a146100a057806377efa2b5146100bc575b600080fd5b61008a61019a565b604051610097919061098c565b60405180910390f35b6100ba60048036038101906100b59190610744565b6101a2565b005b6100c4610347565b6040516100d1919061093b565b60405180910390f35b6100f460048036038101906100ef9190610744565b61036b565b604051610101919061098c565b60405180910390f35b610124600480360381019061011f9190610796565b610383565b6040516101319190610956565b60405180910390f35b610154600480360381019061014f919061084d565b6103a1565b6040516101619190610956565b60405180910390f35b610184600480360381019061017f9190610744565b6104ac565b604051610191919061098c565b60405180910390f35b600042905090565b60006002600083815260200190815260200160002054146101c257600080fd5b60606000806000600160009054906101000a900473ffffffffffffffffffffffffffffffffffffffff1673ffffffffffffffffffffffffffffffffffffffff16638f1327c0866040518263ffffffff1660e01b8152600401610224919061098c565b60006040518083038186803b15801561023c57600080fd5b505afa158015610250573d6000803e3d6000fd5b505050506040513d6000823e3d601f19601f8201168201806040525081019061027991906107d2565b8097508194508295508396505050505081421161029557600080fd5b60006001436102a49190610a83565b406040516020016102b59190610971565b6040516020818303038152906040528051906020012090506000600186518360001c6102e19190610b09565b6102eb9190610a2d565b90508060026000898152602001908152602001600020819055507f34fa627446f032cedc60a5521c4a8fbdd28f3ce106d8c6f6c17322ada873cebb87826040516103369291906109a7565b60405180910390a150505050505050565b60008054906101000a900473ffffffffffffffffffffffffffffffffffffffff1681565b60026020528060005260406000206000915090505481565b600042821115610396576001905061039b565b600090505b92915050565b6000806000600160009054906101000a900473ffffffffffffffffffffffffffffffffffffffff1673ffffffffffffffffffffffffffffffffffffffff16638f1327c0876040518263ffffffff1660e01b8152600401610401919061098c565b60006040518083038186803b15801561041957600080fd5b505afa15801561042d573d6000803e3d6000fd5b505050506040513d6000823e3d601f19601f8201168201806040525081019061045691906107d2565b90505080925081935050504281118015610483575060006002600088815260200190815260200160002054145b801561048e57508184145b1561049e576001925050506104a5565b6000925050505b9392505050565b6000806000806000600160009054906101000a900473ffffffffffffffffffffffffffffffffffffffff1673ffffffffffffffffffffffffffffffffffffffff16637dc379fa876040518263ffffffff1660e01b815260040161050f919061098c565b60806040518083038186803b15801561052757600080fd5b505afa15801561053b573d6000803e3d6000fd5b505050506040513d601f19601f8201168201806040525081019061055f919061089c565b809450819550829650839750505050506001600260008481526020019081526020016000205461058f9190610a83565b86141561064c57600160009054906101000a900473ffffffffffffffffffffffffffffffffffffffff1673ffffffffffffffffffffffffffffffffffffffff166327f64634836040518263ffffffff1660e01b81526004016105f1919061098c565b60206040518083038186803b15801561060957600080fd5b505afa15801561061d573d6000803e3d6000fd5b505050506040513d601f19601f82011682018060405250810190610641919061076d565b945050505050610655565b60009450505050505b919050565b600061066d61066884610a01565b6109d0565b9050808382526020820190508285602086028201111561068c57600080fd5b60005b858110156106bc57816106a2888261072f565b84526020840193506020830192505060018101905061068f565b5050509392505050565b6000815190506106d581610bc7565b92915050565b600082601f8301126106ec57600080fd5b81516106fc84826020860161065a565b91505092915050565b60008151905061071481610bde565b92915050565b60008135905061072981610bf5565b92915050565b60008151905061073e81610bf5565b92915050565b60006020828403121561075657600080fd5b60006107648482850161071a565b91505092915050565b60006020828403121561077f57600080fd5b600061078d8482850161072f565b91505092915050565b600080604083850312156107a957600080fd5b60006107b78582860161071a565b92505060206107c88582860161071a565b9150509250929050565b600080600080608085870312156107e857600080fd5b60006107f68782880161072f565b94505060206108078782880161072f565b9350506040610818878288016106c6565b925050606085015167ffffffffffffffff81111561083557600080fd5b610841878288016106db565b91505092959194509250565b60008060006060848603121561086257600080fd5b60006108708682870161071a565b93505060206108818682870161071a565b92505060406108928682870161071a565b9150509250925092565b600080600080608085870312156108b257600080fd5b60006108c08782880161072f565b94505060206108d18782880161072f565b93505060406108e28782880161072f565b92505060606108f387828801610705565b91505092959194509250565b61090881610ab7565b82525050565b61091781610ac9565b82525050565b61092681610ad5565b82525050565b61093581610aff565b82525050565b600060208201905061095060008301846108ff565b92915050565b600060208201905061096b600083018461090e565b92915050565b6000602082019050610986600083018461091d565b92915050565b60006020820190506109a1600083018461092c565b92915050565b60006040820190506109bc600083018561092c565b6109c9602083018461092c565b9392505050565b6000604051905081810181811067ffffffffffffffff821117156109f7576109f6610b98565b5b8060405250919050565b600067ffffffffffffffff821115610a1c57610a1b610b98565b5b602082029050602081019050919050565b6000610a3882610aff565b9150610a4383610aff565b9250827fffffffffffffffffffffffffffffffffffffffffffffffffffffffffffffffff03821115610a7857610a77610b3a565b5b828201905092915050565b6000610a8e82610aff565b9150610a9983610aff565b925082821015610aac57610aab610b3a565b5b828203905092915050565b6000610ac282610adf565b9050919050565b60008115159050919050565b6000819050919050565b600073ffffffffffffffffffffffffffffffffffffffff82169050919050565b6000819050919050565b6000610b1482610aff565b9150610b1f83610aff565b925082610b2f57610b2e610b69565b5b828206905092915050565b7f4e487b7100000000000000000000000000000000000000000000000000000000600052601160045260246000fd5b7f4e487b7100000000000000000000000000000000000000000000000000000000600052601260045260246000fd5b7f4e487b7100000000000000000000000000000000000000000000000000000000600052604160045260246000fd5b610bd081610ab7565b8114610bdb57600080fd5b50565b610be781610ac9565b8114610bf257600080fd5b50565b610bfe81610aff565b8114610c0957600080fd5b5056fea2646970667358221220c79728b23f9cbb014c9585865dfb2d8248b2d71ea53d02fbf5ea94b89aa249a864736f6c63430008000033",
  "immutableReferences": {},
  "source": "// SPDX-License-Identifier: MIT\npragma solidity ^0.8.0;\n\nimport \"./BoNhaCai.sol\";\n\ncontract SimpleLottery {\n    address public BoNhaCaiAddr;\n    BoNhaCai boNhaCai;\n\n    event Result(uint roundId, uint value);\n\n    mapping(uint256 => uint256) public winners;\n\n    constructor(address addr) {\n        BoNhaCaiAddr = addr;\n        boNhaCai = BoNhaCai(payable(addr));\n    }\n\n    function Now() public view returns (uint256) {\n        return block.timestamp;\n    }\n\n    function drawWinner(uint256 roundId) public {\n        require(winners[roundId] == 0);\n        uint256[] memory ticketIds;\n        uint256 data;\n        uint256 endTime;\n        address resultContract;\n        (data, endTime, resultContract, ticketIds) = boNhaCai.getRound(roundId);\n\n        require(block.timestamp > endTime);\n\n        bytes32 rand = keccak256(abi.encode(blockhash(block.number - 1)));\n        uint result = (uint256(rand) % ticketIds.length) + 1;\n        winners[roundId] = result;\n        emit Result(roundId, result);\n\n    }\n\n    function checkResult(uint256 ticketId)\n        external\n        view\n        virtual\n        returns (uint256)\n    {\n        uint256 data;\n        uint256 ticketPrice;\n        uint256 roundId;\n        bool used;\n        (data, ticketPrice, roundId, used) = boNhaCai.getTicket(ticketId);\n        if (ticketId == winners[roundId] - 1) {\n            return boNhaCai.balanceOfRound(roundId);\n        } else {\n            return 0;\n        }\n    }\n\n    function checkTicketBuy(\n        uint256 roundId,\n        uint256 _data,\n        uint256 _ticketPrice\n    ) public view virtual returns (bool) {\n        uint256 data;\n        uint256 endTime;\n        (data, endTime, , ) = boNhaCai.getRound(roundId);\n        if (\n            (endTime > block.timestamp) &&\n            (winners[roundId] == 0) &&\n            (_ticketPrice == data)\n        ) return true;\n        else return false;\n    }\n\n    function checkRoundCreate(uint256 _data, uint256 _endTime)\n        public\n        view\n        virtual\n        returns (bool)\n    {\n        if (_endTime > block.timestamp) return true;\n        else return false;\n    }\n}\n",
  "sourcePath": "/home/ubuntu/githubProject/dappReact/contracts/SimpleLottery.sol",
  "compiler": {
    "name": "solc",
    "version": "0.8.0+commit.c7dfd78e.Emscripten.clang"
  },
  "schemaVersion": "3.3.4",
  "updatedAt": "2021-04-17T11:13:33.326Z",
  "networkType": "ethereum",
  "devdoc": {
    "kind": "dev",
    "methods": {},
    "version": 1
  },
  "userdoc": {
    "kind": "user",
    "methods": {},
    "version": 1
  }
}